:10000000FAC0000029C1000027C1000025C100007E
:1000100023C1000021C100001FC100001DC100005C
:100020001BC1000019C1000017C1000015C100006C
:1000300013C1000011C100000FC100000DC100007C
:100040000BC1000009C1000007C1000005C100008C
:1000500003C1000001C10000FFC000000C940009B2
:10006000FBC000000C94CA080C94A108F5C0000065
:10007000F3C00000F1C00000EFC00000EDC00000C0
:10008000EBC00000E9C00000E7C00000E5C00000D0
:10009000E3C00000E1C00000DFC000000C944A098A
:1000A000DBC00000D9C00000D7C00000D5C00000F0
:1000B000D3C00000D1C00000CFC00000CDC0000000
:1000C000CBC00000C9C00000C7C00000C5C0000010
:1000D000C3C00000C1C00000BFC00000BDC0000020
:1000E000BBC000005B015E014D015101550195014E
:1000F000620166016C01700174017A017E01820166
:10010000950188018C019001000022002500280043
:100110002B002E003100340002010000050108010F
:100120000B0105050505070508080808020202027B
:100130000A0A080804040404010101010101010183
:100140000303030303030303040707070C0C0C0C4E
:100150000C0C0C0C02020202060606060606060637
:100160000B0B0B0B0B0B0B0B0102102020080810C4
:100170002040102040800201020108040201010217
:1001800004081020408080402010080402018004F0
:10019000020180402010080402010804020101024B
:1001A0000408102040800102040810204080000054
:1001B0000A0B02090C0D0E080703040100000000E1
:1001C000000000000000000000000000000000002F
:1001D00000000000000000000000121110000000EC
:1001E000000000000000000000000000000000000F
:1001F000000000007B0A11241FBECFEFD1E2DEBF5A
:10020000CDBF00E00CBF24E0A4E5B2E001C01D9228
:10021000A835B207E1F712E0A0E0B2E0E4ECF1E2C9
:1002200000E00BBF02C007900D92A435B107D9F7CB
:1002300010E0CBEFD0E000E006C021970109802F4D
:10024000FE010E94FA0FCA3FD10780E00807A9F714
:100250000E94060B0C94E010D3CE90E0FC01E25516
:10026000FE4F4491FC01E859FE4F2491FC01EE5DE4
:10027000FE4F9491992309F466C0442309F455C0B4
:1002800050E0FA013197E231F10508F04EC08827BD
:10029000EE58FF4F8F4F0C94FA0F809180008F77AC
:1002A00007C0809180008F7D03C080918000877F90
:1002B000809380003AC084B58F7702C084B58F7D6B
:1002C00084BD33C08091B0008F7703C08091B000AF
:1002D0008F7D8093B00029C0809190008F7707C0F8
:1002E000809190008F7D03C080919000877F8093E4
:1002F00090001BC08091A0008F7707C08091A00064
:100300008F7D03C08091A000877F8093A0000DC0E7
:10031000809120018F7707C0809120018F7D03C0DD
:1003200080912001877F80932001E92FF0E0EE0F7C
:10033000FF1FE85FFE4FA591B4918FB7F894EC9141
:100340002E2B2C938FBF0895E2E1F3E0A089B189B1
:1003500082E08C93A485B5851C92A685B7858FEC29
:100360008C93108EA489B58986E08C93A289B38979
:100370008C9180618C93A289B3898C9188608C93D5
:10038000A289B3898C9180688C930288F389E02DCF
:1003900080818F7D808308958091FC0390E020917F
:1003A000FD03821B91090895CF92DF92EF92FF9295
:1003B0000F931F93CF93DF936C017A018B01C0E001
:1003C000D0E0CE15DF0589F0D8016D918D01D60101
:1003D000ED91FC910190F081E02DC6011995892BDA
:1003E00011F47E0102C02196ECCFC701DF91CF91BD
:1003F0001F910F91FF90EF90DF90CF900895FC0137
:10040000538D448D252F30E0842F90E0821B930B79
:10041000541710F0CF96089501970895FC01918D1F
:10042000828D981761F0828DDF01A80FB11D5D9656
:100430008C91928D9F5F9F73928F90E008958FEFC4
:100440009FEF0895FC01918D828D981731F0828D78
:10045000E80FF11D858D90E008958FEF9FEF0895CF
:10046000FC01918D228D892F90E0805C9F4F821B33
:1004700091098F739927089582E193E0F1DF21E0DC
:10048000892B09F420E0822F0895FC01848DDF017F
:10049000A80FB11DA35ABF4F2C91848D90E00196F7
:1004A0008F739927848FA689B7892C93A089B189E6
:1004B0008C9180648C93938D848D981306C00288F0
:1004C000F389E02D80818F7D80830895EF92FF92E4
:1004D0000F931F93CF93DF93EC0181E0888F9B8D67
:1004E0008C8D981305C0E889F989808185FD23C02A
:1004F000F62E0B8D10E00F5F1F4F0F731127E02EAC
:100500008C8DE8120BC00FB607FCFACFE889F98989
:10051000808185FFF5CFCE01B8DFF2CF8B8DFE0154
:10052000E80FF11DE35AFF4FF0820B8FEA89FB8938
:100530008081806207C0EE89FF896083E889F9893C
:1005400080818064808381E090E0DF91CF911F9172
:100550000F91FF90EF900895CF93DF93EC01888D7A
:100560008823C1F0EA89FB89808185FD05C0A889BF
:10057000B9898C9186FD0EC00FB607FCF5CF80813E
:1005800085FFF2CFA889B9898C9185FFEDCFCE0187
:100590007CDFE8CFDF91CF91089580E090E0892B58
:1005A00019F06ADF811125C080E090E0892B41F0CD
:1005B00080E090E0892B21F00E94000081111CC096
:1005C00080E090E0892B41F080E090E0892B21F0E1
:1005D0000E940000811113C080E090E0892BA1F0FF
:1005E00080E090E0892B81F00E94000081110AC018
:1005F00008950E940000D8CF0E940000E1CF0E9421
:100600000000EACF0C94000008953FB7F894809161
:10061000A0029091A102A091A202B091A30226B5DE
:10062000A89B05C02F3F19F00196A11DB11D3FBF2A
:10063000BA2FA92F982F8827820F911DA11DB11DB8
:10064000BC01CD0142E0660F771F881F991F4A95B4
:10065000D1F708952FB7F89460919C0270919D0294
:1006600080919E0290919F022FBF089585ED809307
:10067000BC008091BC0084FDFCCF1092F90308956A
:1006800040917602262F30E0240F311D21323105B2
:10069000DCF42091F9032430C9F4FC0180E090E0FF
:1006A000861758F4309176022191DC01AC5ABD4F87
:1006B000A30FB11D2C930196F3CF80917602680FA2
:1006C0006093760280E0089581E0089582E00895C5
:1006D0000895E091FD038091FC03E81730F4F0E009
:1006E000EE50FD4F808190E008958FEF9FEF0895C9
:1006F0009091FD038091FC03981750F4E92FF0E0EE
:10070000EE50FD4F208130E09F5F9093FD0302C0CB
:100710002FEF3FEFC9010895CF92DF92EF92FF9242
:100720000F931F93CF93DF937C01262F972F8A017E
:100730008091CD02882391F0C62FD72F6E01C40E71
:10074000D51ECC15DD0569F06991D701ED91FC91BD
:100750000190F081E02DC7011995F3CF642F822F0E
:100760008FDFC801DF91CF911F910F91FF90EF9024
:10077000DF90CF900895CF93DF931F92CDB7DEB770
:1007800069832091CD022223D1F02091FA032032F7
:1007900040F021E030E0FC013383228380E090E0F0
:1007A00014C08091FB03E82FF0E0E455FD4F9981E0
:1007B00090838F5F8093FB038093FA0304C061E012
:1007C000CE0101965DDF81E090E00F90DF91CF9147
:1007D0000895CF93C091410491E09093CD02C093CE
:1007E000CC021092FB031092FA03682F8EEF93E075
:1007F000C2DF8091FA03813208F046C09091F9037C
:100800009111FCCF92E09093F90391E09093F8035B
:100810009FEF9093F1021092F0028093EF02ACEA06
:10082000B2E02EEC32E0F9019E2F921B981718F4DB
:100830009D919193F9CF1092EE028091EE02CC0F30
:10084000C82BC093EE028091F703813061F41092BF
:10085000F7038091EE028093BB008091BC0083FD82
:10086000F8CF85EC01C085EE8093BC008091F90340
:100870008230E1F38091F1028F3F31F08091F102FB
:10088000803211F08091F1021092FB031092FA0372
:100890001092CD02CF910895089580E090E00895E0
:1008A0009091F9039111FCCF613208F060E291E080
:1008B0009093F9039093F8032FEF2093F102109295
:1008C000F002260F2093EF029093EE029091EE0239
:1008D000880F892B8093EE028091F703813061F4B9
:1008E0001092F7038091EE028093BB008091BC00D0
:1008F00083FDF8CF85EC01C085EE8093BC0080912C
:10090000F9038130E1F38091F002861710F46091D1
:10091000F002AEECB2E022EF32E0F9018E2F821B42
:10092000861718F48D918193F9CF1092FD0360938F
:10093000FC03862F08950F931F93CF93909140044B
:10094000911105C0885B45DF81E080934004809170
:10095000570481110CC081E0809357047BDE6093C3
:1009600053047093540480935504909356048091DB
:100970005704811104C060E070E0CB0151C06ADE11
:100980000091530410915404209155043091560461
:10099000DC01CB01801B910BA20BB30B0C97A105C3
:1009A000B1054CF380E015DF63E070E08091410415
:1009B0009091420475DFE0E0C0E000E09091FC031C
:1009C0008091FD03981769F08EEF93E091DE082F78
:1009D0008EEF93E08DDEC82F8EEF93E089DEE82F57
:1009E000EDCF802F90E0A0E0B0E09C011127002720
:1009F0004C2F50E060E070E0762F652F542F442795
:100A0000D901C801840F951FA61FB71FBC01CD01D6
:100A10006E0F711D811D911D10924004109257049C
:100A2000CF911F910F9108952F923F924F925F9215
:100A30006F927F928F929F92AF92BF92CF92DF92EE
:100A4000EF92FF920F931F93CF93DF93CDB7DEB753
:100A5000A1970FB6F894DEBF0FBECDBF80913F04C3
:100A6000882309F469C280E190E065DF61157105B2
:100A70008105910509F4EEC220914D0430914E0498
:100A8000890120E030E0322F212F102F00276B0149
:100A90007C01C01AD10AE20AF30AC98ADA8AEB8A0F
:100AA000FC8A20914F043091500440E050E0C7018F
:100AB000B6010E94531007E10E94A01019012A01FB
:100AC000A20191012053384F4F4F5F4F298F3A8F2A
:100AD0004B8F5C8F203D3740410551050CF001C123
:100AE000C701B601A70196010E94531001E20E94BE
:100AF000A01059016A017B01E82F192F02E00E9422
:100B000087100E2F0E94C7102093170430931804EB
:100B10004093190450931A0460931B0470931C04AF
:100B200080931D0490931E04A2019101C201B101A2
:100B30000E94270E6B017C01A3E0B0E09B01AC0199
:100B40000E94580E9B01AC01559547953795279506
:100B500029833A834B835C839B01AC01550F220BA5
:100B6000322FA9012D833E834F83588739813093DB
:100B70001F044A81409320045B81509321048C819F
:100B800080932204209323049D81909324049093C6
:100B9000250490932604A5E0B0E0A70196010E94E9
:100BA000580E6B017C01B3E0F594E794D794C79499
:100BB000BA95D1F7C986DA86EB86FC869B01AC0133
:100BC000550F220B322FA9012D873E874F87588B57
:100BD000C0922704D0922804E0922904F0922A04BB
:100BE00020932B043D8530932C0430932D043093B7
:100BF0002E04898D9A8DAB8DBC8D84329A4FAF4F68
:100C0000BF4F0CF0CEC0C201B1016455724F8F4F7F
:100C10009F4F9B01AC010E94270E2B013C01A7E0D6
:100C2000B0E09B01AC010E94580E7B018C019B013E
:100C3000AC01550F220B322FA9012D8B3E8B4F8B10
:100C4000588F29813A814B815C816D81762F862F67
:100C5000962F57016801ED88FE2C0E2D1E2D0E9447
:100C6000BE1020931F04309320044093210450931E
:100C700022046093230470932404809325049093AA
:100C800026048301720172E0EE0CFF1C001F111F8D
:100C90007A95D1F727013801770C4408542C32019A
:100CA00029853A854B855C856D85762F862F962F15
:100CB00057016801E42CF42C042D142D0E94BE1061
:100CC00020932704309328044093290450932A0446
:100CD00060932B0470932C0480932D0490932E0426
:100CE00060C069897A898B899C899B01AC010E94CB
:100CF000531059016A017B01E82F192F03E00E946C
:100D000087100E2F0E94C7100E94A40F20E030E031
:100D100040E05DE2E8D60E943E0F20931704309336
:100D200018044093190450931A0460931B047093A1
:100D30001C0480931D0490931E04A2019101C20122
:100D4000B10185D78B019C0144E035952795179516
:100D500007954A95D1F7DC01CB01BB0F880B982F83
:100D6000DC0100931F04109320042093210430938E
:100D70002204809323048093240480932504809389
:100D8000260410922704109228041092290410922D
:100D90002A0410922B0410922C0410922D0410920D
:100DA0002E0440914B0450914C0459A348A3E09168
:100DB0004904F0914A0480904504909046049401BF
:100DC00040E050E060E070E080E090E00FE00E94E2
:100DD000871019012A013B014C019F0140E050E0BE
:100DE00069897A898B899C890E94531008E00E9446
:100DF000A01059016A017B018C019101A201B3018C
:100E0000C4010E94BE1029013A014B0189839D83D0
:100E10008091170490911804A0911904B0911A04BC
:100E2000C98CDA8CEB8CFC8CC81AD90AEA0AFB0A4A
:100E3000C0920F04D0921004E0921104F0921204B8
:100E400040914704509148049A0140E050E060E02E
:100E500070E080E090E000E10E94871029873D87E4
:100E60004D8B5D8F6E8F7F8F1C01E8A0F9A09701DD
:100E700040E050E069897A898B899C890E945310EF
:100E800007E00E94A01059016A017B018C012985AD
:100E90003D854D895D8D6E8D7F8DC1010E94BE1097
:100EA000A0901F04B0902004C0902104D090220490
:100EB000E0902304F090240400912504109126046E
:100EC0000E94C71020932F043093300440933104C4
:100ED0005093320460933304709334048093350448
:100EE000909336049201A301B40189819D81A09061
:100EF0002704B0902804C0902904D0902A04E090E0
:100F00002B04F0902C0400912D0410912E040E94CB
:100F1000C71020933704309338044093390450931A
:100F20003A0460933B0470933C0480933D04909397
:100F30003E0410923F048EC080E090E0FCDC61151E
:100F400071058105910509F485C01B012C01A09054
:100F50003704B0903804C0903904D0903A04E0903F
:100F60003B04F0903C0400913D0410913E049B0131
:100F7000A20160E070E080E090E00E940210122F79
:100F8000D32EE42EB52FF62FE72FF82E092FA0E051
:100F90000E94D01084F421503109404E5F4F6F4FB2
:100FA0007F4F8F4F9F4F122FD32EE42EB52FF62F4A
:100FB000E72FF82E092F212F3D2D4E2D5B2F6F2F60
:100FC0007E2F8F2D902F05E10E94A010A0902F045E
:100FD000B0903004C0903104D0903204E0903304DB
:100FE000F090340400913504109136040E94C7102B
:100FF000122FD32EE42EB52FF62FE72FF82E092F20
:10100000A0E00E94D01084F4215030484F4F5F4F31
:101010006F4F7F4F8F4F9F4F122FD32EE42EB52F40
:10102000F62FE72FF82E092F212F3D2D4E2D5B2F68
:101030006F2F7E2F8F2D902F0FE00E94A0102093F6
:10104000130430931404409315045093160481E064
:1010500080933F04A1960FB6F894DEBF0FBECDBFBC
:10106000DF91CF911F910F91FF90EF90DF90CF9084
:10107000BF90AF909F908F907F906F905F904F90B8
:101080003F902F9008956115710579F0FB01019053
:101090000020E9F73197AF01461B570BDC01ED91BA
:1010A000FC910280F381E02D199480E090E0089596
:1010B0004F925F926F927F92EF92FF920F931F93E6
:1010C000CF93DF93CDB7DEB7A1970FB6F894DEBF0D
:1010D0000FBECDBF7C01FA01CB0119A2223008F46A
:1010E0002AE08E010F5D1F4F422E512C612C712C76
:1010F000BF01A3019201BAD5F901CA01015011093A
:101100006A3014F4605D01C0695CD8016C93232BD4
:10111000242B252B69F7B801C701B5DFA1960FB6BF
:10112000F894DEBF0FBECDBFDF91CF911F910F911D
:10113000FF90EF907F906F905F904F9008950E9486
:10114000DC101F920F920FB60F9211240BB60F9264
:101150002F933F934F935F936F937F938F939F93BF
:10116000AF93BF93EF93FF9382E193E08ED9FF910A
:10117000EF91BF91AF919F918F917F916F915F910F
:101180004F913F912F910F900BBE0F900FBE0F907C
:101190001F9018951F920F920FB60F9211240BB645
:1011A0000F922F938F939F93EF93FF93E0912203DE
:1011B000F09123038081E0912803F091290382FDBF
:1011C00012C0908180912B038F5F8F7320912C032D
:1011D000821751F0E0912B03F0E0EE5EFC4F958F0B
:1011E00080932B0301C08081FF91EF919F918F919C
:1011F0002F910F900BBE0F900FBE0F901F90189560
:101200001F920F920FB60F9211242F933F938F933B
:101210009F93AF93BF9380919C0290919D02A09168
:101220009E02B0919F0230919B0223E0230F2D3745
:1012300020F40196A11DB11D05C026E8230F0296DA
:10124000A11DB11D20939B0280939C0290939D024F
:10125000A0939E02B0939F028091A0029091A10260
:10126000A091A202B091A3020196A11DB11D80938D
:10127000A0029093A102A093A202B093A302BF91F7
:10128000AF919F918F913F912F910F900FBE0F9033
:101290001F9018951F920F920FB60F9211240BB644
:1012A0000F922F933F934F935F936F937F938F93FF
:1012B0009F93AF93BF93EF93FF938091B900887F83
:1012C000803609F49CC068F5883209F45BC090F45C
:1012D000803109F454C038F4882309F4F6C088300A
:1012E00009F44DC0F5C0883109F44CC0803209F4CE
:1012F0005DC0EEC0803409F468C048F4803309F45E
:1013000055C0883309F0E4C08093F102D8C080351D
:1013100009F44FC0883509F45DC0883409F0D8C09D
:10132000D6C0883909F4C7C0A8F4883709F467C063
:1013300038F4883609F463C0803709F460C0C8C047
:10134000883809F4B8C0803909F45FC0803809F0E2
:10135000BFC05BC0803B09F486C038F4803A09F412
:1013600066C0883A09F47FC0B3C0803C09F4A7C0C6
:10137000883C09F4A4C0883B09F48AC0A9C08091C4
:10138000EE0210C09091F0028091EF02981770F574
:10139000E091F00281E08E0F8093F002F0E0E253E2
:1013A000FD4F80818093BB0085EC86C08093F10265
:1013B0008EC0E091F00281E08E0F8093F002809168
:1013C000BB00F0E0E253FD4F80839091F0028091EA
:1013D000EF026EC0E091F00281E08E0F8093F00288
:1013E0008091BB00F0E0E253FD4F80838091F803D1
:1013F00081116DC081E08093F70384EA61C083E0CE
:101400008093F90310929A02CFCF80919A02803292
:1014100008F051C0E0919A0281E08E0F80939A0209
:101420008091BB00F0E0E658FD4F8083BDCF85EC96
:101430008093BC001092F90380919A02803230F4BC
:10144000E0919A02F0E0E658FD4F108260919A0216
:1014500070E0E0917802F09179028AE792E01995C4
:1014600010929A0235C084E08093F90310927702BB
:1014700010927602E0917402F091750219958091B4
:101480007602811105C081E08093760210925402A9
:10149000E091770281E08E0F80937702F0E0EC5AC2
:1014A000FD4F80818093BB009091770280917602FE
:1014B000981708F479CF85E88093BC0009C085ECC3
:1014C0008093BC001092F90303C01092F102CED8B1
:1014D000FF91EF91BF91AF919F918F917F916F910C
:1014E0005F914F913F912F910F900BBE0F900FBEC8
:1014F0000F901F901895CF93DF93E2E1F3E01382F2
:10150000128288EE93E0A0E0B0E084839583A68306
:10151000B78324E032E03183208325EC30E0358747
:10152000248724EC30E03787268720EC30E0318BAD
:10153000208B21EC30E0338B228B22EC30E0358B9A
:10154000248B26EC30E0378B268B118E128E138E77
:10155000148EEFEAF3E01682178210861186128647
:1015600013861486158616861786108A118A128AA3
:10157000138A148A158AEEEFF3E0138212828483B1
:101580009583A683B78386E192E091838083CFE041
:10159000D4E081E088AB19AA10925304109254044D
:1015A0001092550410925604109257041092FD03A5
:1015B0001092FC031092FB031092FA031092F903AD
:1015C0008093F8031092F70384E10E942D0185E1D6
:1015D0000E942D01E9EBF0E080818E7F8083808185
:1015E0008D7F808388E48093B80085E48093BC007D
:1015F00087E790E09BAB8AABEAE0F4E010821182CF
:10160000128213821482DF91CF910895789484B569
:10161000826084BD84B5816084BD85B5826085BDEE
:1016200085B5816085BD80916E00816080936E007C
:10163000109281008091810082608093810080916E
:10164000810081608093810080918000816080931F
:1016500080008091B10084608093B1008091B000DF
:1016600081608093B00080919100826080939100AE
:1016700080919100816080939100809190008160C1
:10168000809390008091A10082608093A10080915E
:10169000A10081608093A1008091A000816080936F
:1016A000A00080912101826080932101809121011D
:1016B00081608093210180912001816080932001CD
:1016C00080917A00846080937A0080917A008260B1
:1016D00080937A0080917A00816080937A00809173
:1016E0007A00806880937A001092C1001092F30310
:1016F0001092F4031092F5031092F6031092B103C6
:101700001092B2031092B3031092B4030E942A0302
:101710006B017C014B015C0128EB820E2BE0921ED9
:10172000A11CB11C0E942A036C157D058E059F0526
:1017300028F086169706A806B906A0F782E193E07E
:101740009093F2038093F1030E94A4010E942A0364
:101750006093B1037093B2038093B3039093B40387
:1017600064E272E08091F1039091F2038CDC0E94BC
:101770002A036B017C014B015C013AE0830E911C52
:10178000A11CB11C0E942A036C157D058E059F05C6
:1017900028F086169706A806B906A0F781E0809380
:1017A000C5030E94A4018EE114D80E9405034B01D9
:1017B0005C0193E0C92ED12CE12CF12C0E94050391
:1017C000DC01CB0188199909AA09BB09883E93401D
:1017D000A105B10558F081E0C81AD108E108F10867
:1017E000E8EE8E0EE3E09E1EA11CB11CC114D104D4
:1017F000E104F10419F783E4E82E84E0F82EC0EA4E
:101800008C2F0E94E90362E070E080914104909186
:10181000420446D88EEF93E00E947803D82E8EEFD4
:1018200093E00E9478031D2D00E09801282BC90148
:10183000F701819391937F01CE5FC03B09F7F4D804
:101840006091130470911404809115049091160412
:10185000EBD020E030E040E251E4A8D26093A40253
:101860007093A5028093A6029093A702C1E0C09353
:101870000E040E942A0360930A0470930B04809361
:101880000C0490930D04D0D860910F047091100453
:101890008091110490911204C7D020E030E048EC10
:1018A00052E484D26093A8027093A9028093AA02A2
:1018B0009093AB0266E372E082E193E0E4DBC090D8
:1018C000A802D090A902E090AA02F090AB02A70172
:1018D0009601C701B6018AD3882319F067E472E044
:1018E00018C046015701E894B7F82FEF3FEF4FE7D4
:1018F0005FE7C501B4017AD381110FC02FEF3FEF2D
:101900004FE75FE7C501B40189D0181634F46BE4E2
:1019100072E082E193E0B7DB79C02FEF3FEF4FE752
:101920005FE4C701B6015ED318161CF46FE472E0E1
:10193000F0CF2FEF3FEF4FE75FECC701B6016ED05E
:1019400087FDF4CF20E030E0A901C701B60166D0E1
:1019500087FF0FC0E0911203F09113030190F08113
:10196000E02D6DE282E193E01995F7FAF094F7F833
:10197000F0942AE037ED43EA5BE3C701B601B2D148
:101980004B015C01B5D26B017C014CD09B01AC01D9
:10199000C501B401A6D14B015C012AE0B701A60143
:1019A00082E193E085DBE0911203F0911303019053
:1019B000F081E02D6EE282E193E0199520E030E0C5
:1019C00040E251E4C501B4018ED04B015C0190D2DC
:1019D0006B01E12CF12C2AE0B701A60182E193E032
:1019E00067DBC701B6011ED09B01AC01C501B40184
:1019F00078D120E030E040E251E475D079D2AB01FB
:101A000060E070E02AE082E193E052DB63E372E0A1
:101A100082E193E038DB0E94CD0229CF40D008F468
:101A200081E00895E89409C097FB3EF49095809575
:101A3000709561957F4F8F4F9F4F9923A9F0F92F94
:101A400096E9BB279395F695879577956795B79512
:101A5000F111F8CFFAF4BB0F11F460FF1BC06F5FF8
:101A60007F4F8F4F9F4F16C0882311F096E911C00A
:101A7000772321F09EE8872F762F05C0662371F02B
:101A800096E8862F70E060E02AF09A95660F771F3F
:101A9000881FDAF7880F9695879597F90895990F1B
:101AA0000008550FAA0BE0E8FEEF16161706E80728
:101AB000F907C0F012161306E407F50798F0621B49
:101AC000730B840B950B39F40A2661F0232B242B1E
:101AD000252B21F408950A2609F4A140A6958FEF3D
:101AE000811D811D08950BD078C069D028F06ED07B
:101AF00018F0952309F05AC05FC01124A2C07ED00F
:101B0000A0F3959FD1F3950F50E0551F629FF00110
:101B1000729FBB27F00DB11D639FAA27F00DB11D69
:101B2000AA1F649F6627B00DA11D661F829F2227F2
:101B3000B00DA11D621F739FB00DA11D621F839F79
:101B4000A00D611D221F749F3327A00D611D231F4F
:101B5000849F600D211D822F762F6A2F11249F579D
:101B600050408AF0E1F088234AF0EE0FFF1FBB1FC0
:101B7000661F771F881F91505040A9F79E3F51055F
:101B800070F014C05EC05F3FECF3983EDCF38695C6
:101B900077956795B795F795E7959F5FC1F7FE2B0A
:101BA000880F911D9695879597F9089597F99F67E6
:101BB00080E870E060E008959FEF80EC08950024D5
:101BC0000A941616170618060906089500240A94A2
:101BD00012161306140605060895092E0394000C28
:101BE00011F4882352F0BB0F40F4BF2B11F460FFB7
:101BF00004C06F5F7F4F8F4F9F4F089557FD9058E0
:101C0000440F551F59F05F3F71F04795880F97FBC0
:101C1000991F61F09F3F79F087950895121613067A
:101C20001406551FF2CF4695F1DF08C016161706A9
:101C30001806991FF1CF86957105610508940895DE
:101C4000E894BB2766277727CB0197F90895DB0136
:101C50008F939F932DD0BF91AF91A29F800D911D27
:101C6000A39F900DB29F900D11240895A1E21A2E0A
:101C7000AA1BBB1BFD010DC0AA1FBB1FEE1FFF1F30
:101C8000A217B307E407F50720F0A21BB30BE40B80
:101C9000F50B661F771F881F991F1A9469F76095C7
:101CA0007095809590959B01AC01BD01CF01089581
:101CB00009D0A59F900DB49F900DA49F800D911DFC
:101CC00011240895A29FB001B39FC001A39F700D7E
:101CD000811D1124911DB29F700D811D1124911D34
:101CE00008955058BB27AA270ED077CF68DF30F071
:101CF0006DDF20F031F49F3F11F41EF45DCF0EF440
:101D0000E095E7FB53CFE92F79DF80F3BA1762073D
:101D100073078407950718F071F49EF591CF0EF4C0
:101D2000E0950B2EBA2FA02D0B01B90190010C01EB
:101D3000CA01A0011124FF27591B99F0593F50F403
:101D4000503E68F11A16F040A22F232F342F44275B
:101D5000585FF3CF469537952795A795F040539553
:101D6000C9F77EF41F16BA0B620B730B840BBAF023
:101D70009150A1F0FF0FBB1F661F771F881FC2F78E
:101D80000EC0BA0F621F731F841F48F487957795A2
:101D90006795B795F7959E3F08F0B3CF9395880F59
:101DA00008F09927EE0F9795879508950CD015CFD9
:101DB0000DDF40F004DF30F021F45F3F19F0F6CE84
:101DC00051113FCFF9CE1ADF98F39923C9F3552368
:101DD000B1F3951B550BBB27AA276217730784071E
:101DE00038F09F5F5F4F220F331F441FAA1FA9F3D4
:101DF00033D00E2E3AF0E0E830D091505040E695C6
:101E0000001CCAF729D0FE2F27D0660F771F881F26
:101E1000BB1F261737074807AB07B0E809F0BB0B15
:101E2000802DBF01FF2793585F4F2AF09E3F510539
:101E300068F0BCCE06CF5F3FECF3983EDCF38695AE
:101E400077956795B795F7959F5FC9F7880F911DAF
:101E50009695879597F90895E1E0660F771F881F9B
:101E6000BB1F621773078407BA0720F0621B730B4E
:101E7000840BBA0BEE1F88F7E0950895BEE304D0FB
:101E800008F490E80895BFE322273327A901BEDEB6
:101E900058F19F5740F1B91738F1BFE3B91B9927A3
:101EA000B8503AF4660F771F881F991FB395D2F385
:101EB00016C0B8504AF0232F342F452F562F672FC6
:101EC000782F8827B850BAF7B85F49F0869577958C
:101ED00067955795479537952795BA95B9F70EF4B5
:101EE00071D088940895889460E070E0CB010895E3
:101EF0008DDE88F09F5790F0B92F9927B751A0F049
:101F0000D1F0660F771F881F991F1AF0BA95C9F78D
:101F100012C0B13081F094DEB1E0089591CE672F08
:101F2000782F8827B85F39F0B93FCCF3869577953D
:101F30006795B395D9F73EF4909580957095619526
:101F40007F4F8F4F9F4F0895E894F92F96EBFF2313
:101F500081F0121613061406440B9395F695879597
:101F60007795679557954040FF23B9F71BC0992790
:101F70000895882351F49850D2F7872B762F652F38
:101F8000542F432F322F20E0B1F3121613061406FC
:101F9000440B88233AF09A95440F551F661F771F0C
:101FA000881FCAF755234AF4440F551F11F460FFE8
:101FB00004C06F5F7F4F8F4F9F4F880F9695879517
:101FC00097F90895909580957095609550954095F6
:101FD000309521953F4F4F4F5F4F6F4F7F4F8F4F42
:101FE0009F4F08955CDD08F48FEF089558DD880B4E
:101FF000990B0895EE0FFF1F881F8BBF0790F69176
:10200000E02D1994DF93CF931F930F939A9DF02D9A
:10201000219FF00D8B9DF00D8A9DE02DF10D039F0A
:10202000F00D029FE00DF11D4E9DE00DF11D5E9D36
:10203000F00D4F9DF00D7F936F93BF92AF925F9322
:102040004F93D5013FDE8B01AC01D7013BDEEB01A5
:10205000E80FF91FD6011FD02F913F91D60132DE34
:10206000C60FD71FE81FF91FAF91BF9114D02F9152
:102070003F9128DEC60FD71FE81FF91FD60122DEC9
:10208000E60FF71F9801BE01CF0111240F911F9198
:10209000CF91DF91089516DE460F571FC81FD91F35
:1020A00008F43196089597FB57FF0BC09F938F93C9
:1020B00008D06E1B7F0BAF91BF918A0B9B0B0895CD
:1020C000E894DF93CF93FC01DB01FCDD7F936F93FA
:1020D000E9019A01AC01BF93AF933F932F93DF01C6
:1020E000F1DD26F46C1B7D0B820B930B9E01EB0143
:1020F000FC01D1DFAF91BF912F913F91CCDFBE01A9
:10210000CF01F9012F913F91CF91DF9108950F9366
:10211000083090F0982F872F762F652F542F432F5C
:10212000322F22270850F4CF220F331F441F551F90
:10213000661F771F881F991F0A95B2F70F910895A0
:1021400097FB10F8169400080F93083098F0085089
:10215000232F342F452F562F672F782F892F902D1F
:10216000F4CF0594979587957795679557954795FB
:10217000379527950A95AAF70F9108952A0D3B1DCB
:102180004C1D5D1D6E1D7F1D801F911F08952A1916
:102190003B094C095D096E097F09800B910B08957D
:1021A0000024A7FD00942A1730054005500560055E
:1021B000700580059005089581E090E0F89400C0D6
:0421C000F894FFCFC1
:1021C400000000006602D401FF01AC0230020E02DE
:1021D400220200000000BB038C034D046803CC0101
:1021E40078036903564D4450565F317C315F564D38
:1021F4004450560D0A0054656D70657261747572B1
:10220400652043203D20006E616E00696E66006F9C
:0422140076660000EA
:00000001FF
