:100000003BC100006AC1000068C1000066C1000079
:1000100064C1000062C1000060C100005EC1000058
:100020005CC100005AC1000058C1000056C1000068
:1000300054C1000052C1000050C100004EC1000078
:100040004CC100004AC1000048C1000046C1000088
:1000500044C1000042C1000040C100001EC40000B5
:100060003CC10000D8C30000ADC3000036C1000091
:1000700034C1000032C1000030C100002EC10000B8
:100080002CC100002AC1000028C1000026C10000C8
:1000900024C1000022C1000020C1000048C40000AB
:1000A0001CC100001AC1000018C1000016C10000E8
:1000B00014C1000012C1000010C100000EC10000F8
:1000C0000CC100000AC1000008C1000006C1000008
:1000D00004C1000002C1000000C10000FEC0000019
:1000E000FCC00000F605F905E805EC05F005300652
:1000F000FD05010607060B060F06150619061D0667
:100100003006230627062B0607634236B79BD8A77F
:100110001A39685618AEBAAB558C1D3CB7CC57632C
:10012000BD6DEDFD753EF6177231BF000000803FDA
:1001300008000000BE922449123EABAAAA2ABECDF6
:10014000CCCC4C3E00000080BEABAAAAAA3E000068
:100150000000BF000000803F000000000008417860
:10016000D3BB4387D1133D190E3CC3BD4282AD2B97
:100170003E68EC8276BED98FE1A93E4C80EFFFBE8F
:1001800001C4FF7F3F0000000000000022002500A6
:1001900028002B002E003100340002010000050170
:1001A00008010B01050505050705080808080202F6
:1001B00002020A0A08080404040401010101010101
:1001C00001010303030303030303040707070C0CE4
:1001D0000C0C0C0C0C0C02020202060606060606AB
:1001E00006060B0B0B0B0B0B0B0B01021020200850
:1001F0000810204010204080020102010804020182
:1002000001020408102040808040201008040201F0
:100210008004020180402010080402010804020149
:1002200001020408102040800102040810204080D0
:1002300000000A0B02090C0D0E0807030401000060
:1002400000000000000000000000000000000000AE
:10025000000000000000000000000000121110006B
:10026000000000000000000000000000000000008E
:100270000000000000007C0D11241FBECFEFD1E272
:10028000DEBFCDBF00E00CBF24E0ACEAB2E001C0AD
:100290001D92AB3BB207E1F712E0A0E0B2E0E2E76B
:1002A000F6E200E00BBF02C007900D92AC3AB10736
:1002B000D9F711E0CCE3D1E000E006C021970109B5
:1002C000802FFE010E945112CB33D10780E0080736
:1002D000A9F70E947E0B0C94371392CECF92DF9237
:1002E000EF92FF920F931F93CF93DF936C017A01EC
:1002F0008B01C0E0D0E0CE15DF0589F0D8016D910B
:100300008D01D601ED91FC910190F081E02DC601A7
:100310001995892B11F47E0102C02196ECCFC701FB
:10032000DF91CF911F910F91FF90EF90DF90CF90D1
:100330000895FC01538D448D252F30E0842F90E0EB
:10034000821B930B541710F0CF96089501970895D0
:10035000FC01918D828D981761F0828DDF01A80FCD
:10036000B11D5D968C91928D9F5F9F73928F90E0EF
:1003700008958FEF9FEF0895FC01918D828D98175E
:1003800031F0828DE80FF11D858D90E008958FEF9B
:100390009FEF0895FC01918D228D892F90E0805C64
:1003A0009F4F821B91098F739927089589E793E0E6
:1003B000F1DF21E0892B09F420E0822F0895FC0170
:1003C000848DDF01A80FB11DA35ABF4F2C91848DDE
:1003D00090E001968F739927848FA689B7892C9313
:1003E000A089B1898C9180648C93938D848D9813AE
:1003F00006C00288F389E02D80818F7D8083089577
:10040000EF92FF920F931F93CF93DF93EC0181E064
:10041000888F9B8D8C8D981305C0E889F989808120
:1004200085FD23C0F62E0B8D10E00F5F1F4F0F735D
:100430001127E02E8C8DE8120BC00FB607FCFACF07
:10044000E889F989808185FFF5CFCE01B8DFF2CF49
:100450008B8DFE01E80FF11DE35AFF4FF0820B8FE9
:10046000EA89FB898081806207C0EE89FF89608309
:10047000E889F98980818064808381E090E0DF9160
:10048000CF911F910F91FF90EF900895CF93DF933D
:10049000EC01888D8823C1F0EA89FB89808185FD84
:1004A00005C0A889B9898C9186FD0EC00FB607FCDE
:1004B000F5CF808185FFF2CFA889B9898C9185FF1E
:1004C000EDCFCE017CDFE8CFDF91CF91089580E0C2
:1004D00090E0892B19F06ADF811125C080E090E05F
:1004E000892B41F080E090E0892B21F00E940000F0
:1004F00081111CC080E090E0892B41F080E090E009
:10050000892B21F00E940000811113C080E090E04F
:10051000892BA1F080E090E0892B81F00E940000FF
:1005200081110AC008950E940000D8CF0E940000E7
:10053000E1CF0E940000EACF0C94000008953FB77D
:10054000F8948091F8029091F902A091FA02B0918A
:10055000FB0226B5A89B05C02F3F19F00196A11DEF
:10056000B11D3FBFBA2FA92F982F8827820F911D49
:10057000A11DB11DBC01CD0142E0660F771F881F90
:10058000991F4A95D1F7089585ED8093BC0080911D
:10059000BC0084FDFCCF1092600408954091CE020F
:1005A000262F30E0240F311D21323105DCF420915B
:1005B00060042430C9F4FC0180E090E0861758F410
:1005C0003091CE022191DC01A455BD4FA30FB11D86
:1005D0002C930196F3CF8091CE02680F6093CE02E8
:1005E00080E0089581E0089582E008950895E09103
:1005F000640480916304E81730F4F0E0EC5EFC4F93
:10060000808190E008958FEF9FEF089590916404AA
:1006100080916304981750F4E92FF0E0EC5EFC4FF2
:10062000208130E09F5F9093640402C02FEF3FEF82
:10063000C90108958091630490E020916404821BB5
:1006400091090895CF92DF92EF92FF920F931F933B
:10065000CF93DF937C01262F972F8A018091780317
:10066000882391F0C62FD72F6E01C40ED51ECC154E
:10067000DD0569F06991D701ED91FC910190F08160
:10068000E02DC7011995F3CF642F822F87DFC801B2
:10069000DF91CF911F910F91FF90EF90DF90CF905E
:1006A0000895CF93DF931F92CDB7DEB76983209172
:1006B00078032223D1F020916104203240F021E020
:1006C00030E0FC013383228380E090E014C080910D
:1006D0006204E82FF0E0E85AFC4F998190838F5F25
:1006E000809362048093610404C061E0CE010196AE
:1006F00055DF81E090E00F90DF91CF91089508954C
:1007000080E090E008950E9433136115710579F03F
:10071000FB0101900020E9F73197AF01461B570B11
:10072000DC01ED91FC910280F381E02D199480E0D1
:1007300090E008954F925F926F927F92EF92FF92B6
:100740000F931F93CF93DF93CDB7DEB7A1970FB66B
:10075000F894DEBF0FBECDBF7C01FA01CB0119A218
:10076000223008F42AE08E010F5D1F4F422E512CDB
:10077000612C712CBF01A30192010E94280FF90185
:10078000CA01015011096A3014F4605D01C0695C4E
:10079000D8016C93232B242B252B61F7B801C701BB
:1007A000B4DFA1960FB6F894DEBF0FBECDBFDF91C8
:1007B000CF911F910F91FF90EF907F906F905F907E
:1007C0004F9008951F920F920FB60F9211240BB6FF
:1007D0000F922F933F934F935F936F937F938F93DA
:1007E0009F93AF93BF93EF93FF9389E793E0E7DD88
:1007F000FF91EF91BF91AF919F918F917F916F91F9
:100800005F914F913F912F910F900BBE0F900FBEB4
:100810000F901F9018951F920F920FB60F921124F0
:100820000BB60F922F938F939F93EF93FF93E091CB
:100830008903F0918A038081E0918F03F091900306
:1008400082FD12C09081809192038F5F8F732091FF
:100850009303821751F0E0919203F0E0E758FC4FC8
:10086000958F8093920301C08081FF91EF919F91BA
:100870008F912F910F900BBE0F900FBE0F901F9076
:1008800018952FB7F8946091F4027091F502809159
:10089000F6029091F7022FBF08951F920F920FB6A4
:1008A0000F9211242F933F938F939F93AF93BF93F6
:1008B0008091F4029091F502A091F602B091F702B6
:1008C0003091F30223E0230F2D3720F40196A11D70
:1008D000B11D05C026E8230F0296A11DB11D20936E
:1008E000F3028093F4029093F502A093F602B09382
:1008F000F7028091F8029091F902A091FA02B0916A
:10090000FB020196A11DB11D8093F8029093F9029C
:10091000A093FA02B093FB02BF91AF919F918F9188
:100920003F912F910F900FBE0F901F9018951F921F
:100930000F920FB60F9211240BB60F922F933F9385
:100940004F935F936F937F938F939F93AF93BF93D7
:10095000EF93FF938091B900887F803609F49CC0A3
:1009600068F5883209F45BC090F4803109F454C012
:1009700038F4882309F4F6C0883009F44DC0F5C076
:10098000883109F44CC0803209F45DC0EEC0803477
:1009900009F468C048F4803309F455C0883309F07D
:1009A000E4C080935703D8C0803509F44FC0883520
:1009B00009F45DC0883409F0D8C0D6C0883909F47C
:1009C000C7C0A8F4883709F467C038F4883609F43A
:1009D00063C0803709F460C0C8C0883809F4B8C063
:1009E000803909F45FC0803809F0BFC05BC0803B2C
:1009F00009F486C038F4803A09F466C0883A09F4EC
:100A00007FC0B3C0803C09F4A7C0883C09F4A4C0EF
:100A1000883B09F48AC0A9C08091340310C090912A
:100A2000560380915503981770F5E091560381E0C5
:100A30008E0F80935603F0E0EB5CFC4F8081809337
:100A4000BB0085EC86C0809357038EC0E0915603AF
:100A500081E08E0F809356038091BB00F0E0EB5C49
:100A6000FC4F808390915603809155036EC0E091B6
:100A7000560381E08E0F809356038091BB00F0E017
:100A8000EB5CFC4F808380915F0481116DC081E03D
:100A900080935E0484EA61C083E0809360041092D6
:100AA000F202CFCF8091F202803208F051C0E09183
:100AB000F20281E08E0F8093F2028091BB00F0E0A1
:100AC000EE52FD4F8083BDCF85EC8093BC00109229
:100AD00060048091F202803230F4E091F202F0E0A2
:100AE000EE52FD4F10826091F20270E0E091D00270
:100AF000F091D10282ED92E019951092F20235C088
:100B000084E0809360041092CF021092CE02E091B4
:100B1000CC02F091CD0219958091CE02811105C0D1
:100B200081E08093CE021092AC02E091CF0281E08E
:100B30008E0F8093CF02F0E0E455FD4F80818093CB
:100B4000BB009091CF028091CE02981708F479CF24
:100B500085E88093BC0009C085EC8093BC001092AE
:100B6000600403C0109257030FDDFF91EF91BF9116
:100B7000AF919F918F917F916F915F914F913F9135
:100B80002F910F900BBE0F900FBE0F901F901895D6
:100B900090E0FC01E05DFD4F4491FC01E651FE4F09
:100BA0002491FC01EC55FE4F9491992309F466C001
:100BB000442309F455C050E0FA013197E231F105C0
:100BC00008F04EC08827EE58FF4F8F4F0C945112FB
:100BD000809180008F7707C0809180008F7D03C057
:100BE00080918000877F809380003AC084B58F77A2
:100BF00002C084B58F7D84BD33C08091B0008F77F3
:100C000003C08091B0008F7D8093B00029C0809197
:100C100090008F7707C0809190008F7D03C08091F6
:100C20009000877F809390001BC08091A0008F77F9
:100C300007C08091A0008F7D03C08091A000877FB6
:100C40008093A0000DC0809120018F7707C0809114
:100C500020018F7D03C080912001877F8093200138
:100C6000E92FF0E0EE0FFF1FE657FE4FA591B4917C
:100C70008FB7F894EC912E2B2C938FBF0895E9E752
:100C8000F3E0A089B18982E08C93A485B5851C929C
:100C9000A685B7858FEC8C93108EA489B58986E0E4
:100CA0008C93A289B3898C9180618C93A289B3893A
:100CB0008C9188608C93A289B3898C9180688C9385
:100CC0000288F389E02D80818F7D80830895CF9302
:100CD000C091A30491E090937803C093BA0410925A
:100CE000620410926104682F85E694E0DADC80915A
:100CF0006104813208F046C0909160049111FCCFEC
:100D000092E09093600491E090935F049FEF909342
:100D100057031092560380935503A8E5B3E025E3EB
:100D200033E0F9019E2F921B981718F49D9191932F
:100D3000F9CF1092340380913403CC0FC82BC093A9
:100D4000340380915E04813061F410925E048091DE
:100D500034038093BB008091BC0083FDF8CF85EC09
:100D600001C085EE8093BC00809160048230E1F385
:100D7000809157038F3F31F080915703803211F0FB
:100D800080915703109262041092610410927803CC
:100D9000CF910895909160049111FCCF613208F0D9
:100DA00060E291E09093600490935F042FEF2093B2
:100DB000570310925603260F209355039093340344
:100DC00090913403880F892B8093340380915E04C3
:100DD000813061F410925E04809134038093BB00F3
:100DE0008091BC0083FDF8CF85EC01C085EE809337
:100DF000BC00809160048130E1F380915603861736
:100E000010F460915603A5E3B3E024E133E0F90167
:100E10008E2F821B861718F48D918193F9CF109233
:100E2000640460936304862F08950F931F93CF93F8
:100E30009091A204911105C0885B49DF81E0809305
:100E4000A2048091B90481110CC081E08093B9049F
:100E500018DD6093B5047093B6048093B704909343
:100E6000B8048091B904811104C06FEF7FEFCB010A
:100E70004DC007DD0091B5041091B6042091B70470
:100E80003091B804DC01CB01801B910BA20BB30B9A
:100E90000C97A105B1054CF380E019DF63E070E029
:100EA0008091A3049091A40475DFE0E0C0E000E02D
:100EB0009091630480916404981769F085E694E04A
:100EC000A5DB082F85E694E0A1DBC82F85E694E03A
:100ED0009DDBE82FEDCF802F90E0A0E0B0E09C01FB
:100EE000112700274C2F50E060E070E0762F652F2F
:100EF000542F4427D901C801840F951FA61FB71F7F
:100F0000BC01CD016E0F711D811D911DCF911F91EF
:100F10000F9108952F923F924F925F926F927F921E
:100F20008F929F92AF92BF92CF92DF92EF92FF92F9
:100F30000F931F93CF93DF93CDB7DEB7A1970FB673
:100F4000F894DEBF0FBECDBF8091A104882309F4C1
:100F500063C280E190E069DF6F3F2FEF7207820785
:100F6000920709F4E5C22091AF043091B0048901E1
:100F700020E030E0322F212F102F00276B017C0161
:100F8000C01AD10AE20AF30AC98ADA8AEB8AFC8A11
:100F90002091B1043091B20440E050E0C701B601A5
:100FA0000E94AA1207E10E94F71219012A01A20168
:100FB00091012053384F4F4F5F4F298F3A8F4B8FFE
:100FC0005C8F203D3740410551050CF0FCC0C70146
:100FD000B601A70196010E94AA1201E20E94F7122F
:100FE00059016A017B01E82F192F02E00E94DE12ED
:100FF0000E2F0E941E132093790430937A0440939D
:101000007B0450937C0460937D0470937E048093F2
:101010007F0490938004A2019101C201B10109D71C
:101020006B017C01A3E0B0E09B01AC0133D79B01D5
:10103000AC01559547953795279529833A834B837E
:101040005C839B01AC01550F220B322FA9012D832C
:101050003E834F8358873981309381044A8140937E
:1010600082045B81509383048C8180938404209359
:1010700085049D81909386049093870490938804BF
:10108000A5E0B0E0A701960105D76B017C01B3E0B4
:10109000F594E794D794C794BA95D1F7C986DA86C0
:1010A000EB86FC869B01AC01550F220B322FA90168
:1010B0002D873E874F87588BC0928904D0928A042F
:1010C000E0928B04F0928C0420938D043D85309344
:1010D0008E0430938F0430939004898D9A8DAB8D5C
:1010E000BC8D84329A4FAF4FBF4F0CF0CAC0C201C3
:1010F000B1016455724F8F4F9F4F9B01AC0199D640
:101100002B013C01A7E0B0E09B01AC01C3D67B0101
:101110008C019B01AC01550F220B322FA9012D8BA5
:101120003E8B4F8B588F29813A814B815C816D8139
:10113000762F862F962F57016801ED88FE2C0E2DF5
:101140001E2D0E9415132093810430938204409336
:101150008304509384046093850470938604809381
:101160008704909388048301720172E0EE0CFF1CE7
:10117000001F111F7A95D1F727013801770C440819
:10118000542C320129853A854B855C856D85762FF7
:10119000862F962F57016801E42CF42C042D142D72
:1011A0000E9415132093890430938A0440938B0482
:1011B00050938C0460938D0470938E0480938F04FD
:1011C000909390045EC069897A898B899C899B0180
:1011D000AC010E94AA1259016A017B01E82F192F64
:1011E00003E00E94DE120E2F0E941E139FD720E004
:1011F00030E040E05DE269D533D720937904309345
:101200007A0440937B0450937C0460937D04709334
:101210007E0480937F0490938004A2019101C20117
:10122000B10107D68B019C0144E0359527951795B0
:1012300007954A95D1F7DC01CB01BB0F880B982F9E
:10124000DC01009381041093820420938304309383
:10125000840480938504809386048093870480931C
:1012600088041092890410928A0410928B041092C0
:101270008C0410928D0410928E0410928F041092A0
:1012800090044091AD045091AE0459A348A3E0915D
:10129000AB04F091AC048090A7049090A804940152
:1012A00040E050E060E070E080E090E00FE00E94FD
:1012B000DE1219012A013B014C019F0140E050E080
:1012C00069897A898B899C890E94AA1208E00E9408
:1012D000F71259016A017B018C019101A201B3014E
:1012E000C4010E94151329013A014B0189839D8392
:1012F0008091790490917A04A0917B04B0917C0450
:10130000C98CDA8CEB8CFC8CC81AD90AEA0AFB0A65
:10131000C0927104D0927204E0927304F09274044B
:101320004091A9045091AA049A0140E050E060E085
:1013300070E080E090E000E10E94DE1229873D87A6
:101340004D8B5D8F6E8F7F8F1C01E8A0F9A09701F8
:1013500040E050E069897A898B899C890E94AA12B1
:1013600007E00E94F71259016A017B018C0129856F
:101370003D854D895D8D6E8D7F8DC1010E94151358
:10138000A0908104B0908204C0908304D090840423
:10139000E0908504F0908604009187041091880401
:1013A0000E941E132093910430939204409393045F
:1013B00050939404609395047093960480939704DB
:1013C000909398049201A301B40189819D81A0901A
:1013D0008904B0908A04C0908B04D0908C04E09073
:1013E0008D04F0908E0400918F04109190040E945F
:1013F0001E132093990430939A0440939B045093B6
:101400009C0460939D0470939E0480939F0490932A
:10141000A0041092A1048CC080E090E006DD2B01B6
:101420003C01770C4408542C3201A0909904B090F0
:101430009A04C0909B04D0909C04E0909D04F0908E
:101440009E0400919F041091A0049B01AC01642DA7
:10145000742D842D942D0E945912122FD32EE42E18
:10146000B52FF62FE72FF82E092FA0E00E942713A3
:1014700084F421503109404E5F4F6F4F7F4F8F4FA3
:101480009F4F122FD32EE42EB52FF62FE72FF82ED5
:10149000092F212F3D2D4E2D5B2F6F2F7E2F8F2D4E
:1014A000902F05E10E94F712A0909104B090920451
:1014B000C0909304D0909404E0909504F09096042A
:1014C00000919704109198040E941E13122FD32E9E
:1014D000E42EB52FF62FE72FF82E092FA0E00E945B
:1014E000271384F4215030484F4F5F4F6F4F7F4F89
:1014F0008F4F9F4F122FD32EE42EB52FF62FE72FAD
:10150000F82E092F212F3D2D4E2D5B2F6F2F7E2F73
:101510008F2D902F0FE00E94F712209375043093C7
:101520007604409377045093780481E08093A1047B
:10153000A1960FB6F894DEBF0FBECDBFDF91CF915D
:101540001F910F91FF90EF90DF90CF90BF90AF90E1
:101550009F908F907F906F905F904F903F902F90D3
:1015600008954F925F926F927F928F929F92AF9267
:10157000BF92CF92DF92EF92FF926B017C019B01B1
:10158000AC0172D6882319F060EA72E018C04601F7
:101590005701E894B7F82FEF3FEF4FE75FE7C5013A
:1015A000B40162D6811110C02FEF3FEF4FE75FE724
:1015B000C501B40125D318163CF464EA72E089E74A
:1015C00093E0A3D87C0186C02FEF3FEF4FE75FE4A5
:1015D000C701B601F9D518161CF468EA72E0EFCF1E
:1015E0002FEF3FEF4FE75FECC701B60109D387FD4F
:1015F000F4CF20E030E0A901C701B60101D387FF95
:1016000011C0E0917903F0917A030190F081E02D0F
:101610006DE289E793E019955C01F7FAF094F7F829
:10162000F09402C0A12CB12C2AE037ED43EA5BE331
:10163000C701B60149D42B013C014CD56B017C019B
:10164000E3D29B01AC01C301B2013DD42B013C01AB
:101650002AE0B701A60189E793E06CD87C01EA0C87
:10166000FB1CE0917903F0917A030190F081E02D69
:101670006EE289E793E01995E80EF91E20E030E06C
:1016800040E251E4C301B20120D32B013C0122D539
:101690004B01A12CB12C2AE0B501A40189E793E00C
:1016A00049D8E80EF91EC501B401AED29B01AC01C8
:1016B000C301B20108D420E030E040E251E405D398
:1016C00009D5AB0160E070E02AE089E793E032D809
:1016D000E80EF91E63E372E089E793E016D88E0DF9
:1016E0009F1DFF90EF90DF90CF90BF90AF909F90A5
:1016F0008F907F906F905F904F900895789484B50D
:10170000826084BD84B5816084BD85B5826085BDFD
:1017100085B5816085BD80916E00816080936E008B
:10172000109281008091810082608093810080917D
:10173000810081608093810080918000816080932E
:1017400080008091B10084608093B1008091B000EE
:1017500081608093B00080919100826080939100BD
:1017600080919100816080939100809190008160D0
:10177000809390008091A10082608093A10080916D
:10178000A10081608093A1008091A000816080937E
:10179000A00080912101826080932101809121012C
:1017A00081608093210180912001816080932001DC
:1017B00080917A00846080937A0080917A008260C0
:1017C00080937A0080917A00816080937A00809182
:1017D0007A00806880937A001092C10010925A04B7
:1017E00010925B0410925C0410925D041092180435
:1017F0001092190410921A0410921B0442D86B0123
:101800007C014B015C0128EB820E2BE0921EA11C97
:10181000B11C37D86C157D058E059F0528F08616FE
:101820009706A806B906A8F789E793E090935904AC
:101830008093580424DA25D860931804709319040F
:1018400080931A0490931B0464E272E08091580420
:10185000909159040E94850314D86B017C014B01BF
:101860005C013AE0830E911CA11CB11C0AD86C15D6
:101870007D058E059F0528F086169706A806B906F1
:10188000A8F781E080932C04FAD98EE120DA0E9437
:101890009F024B015C0193E0C92ED12CE12CF12C6D
:1018A0000E949F02DC01CB0188199909AA09BB0992
:1018B000883E9340A105B10558F081E0C81AD108CF
:1018C000E108F108E8EE8E0EE3E09E1EA11CB11CBB
:1018D000C114D104E104F10419F785EAE82E84E08B
:1018E000F82EC0EA8C2FF3D962E070E08091A30457
:1018F0009091A4044FDA85E694E00E940603D82E66
:1019000085E694E00E9406031D2D00E09801282B37
:10191000C901F701819391937F01CE5FC03B11F71D
:10192000F9DA609175047091760480917704909152
:1019300078046CD120E030E040E251E429D3609398
:101940000003709301038093020390930303E2DA90
:101950006091710470917204809173049091740489
:1019600055D120E030E048EC52E412D360931003EC
:10197000709311038093120390931303CBDA609159
:1019800071047091720480917304909174043ED13B
:1019900020E030E048EC52E4FBD220E030E040E1CF
:1019A00051E493D120E030E040EA50E4F1D220E06D
:1019B00030E040E052E488D260930C0370930D0352
:1019C00080930E0390930F03A5DA609175047091D4
:1019D0007604809177049091780418D120E030E06B
:1019E00040E251E4D5D26B017C016093080370930F
:1019F000090380930A0390930B0327E53BE941E534
:101A00005FE3C6D2609304037093050380930603DB
:101A1000909307032091000330910103409102034A
:101A200050910303C701B601B3D22EEA3CED42E464
:101A30005EE3CED39B01AC0160E070E080E89FE301
:101A400042D220E03AE24DE257E43FD16093FC02FB
:101A50007093FD028093FE029093FF0266E372E0B2
:101A600089E793E00E948503609110037091110350
:101A7000809112039091130374DD67E472E089E7AB
:101A800093E00E94850360910C0370910D03809197
:101A90000E0390910F0365DD68E572E089E793E03E
:101AA0000E948503609108037091090380910A03E5
:101AB00090910B0356DD6EE672E089E793E00E9499
:101AC0008503609104037091050380910603909152
:101AD000070347DD69E872E089E793E00E94850328
:101AE0006091FC027091FD028091FE029091FF02D4
:101AF00038DD0E9467022BCFCF93DF93E9E7F3E055
:101B00001382128288EE93E0A0E0B0E08483958394
:101B1000A683B78324E032E03183208325EC30E0D4
:101B20003587248724EC30E03787268720EC30E0A7
:101B3000318B208B21EC30E0338B228B22EC30E098
:101B4000358B248B26EC30E0378B268B118E128E52
:101B5000138E148EE6E1F4E0168217821086118649
:101B6000128613861486158616861786108A118AA1
:101B7000128A138A148A158AE5E6F4E01382128227
:101B800084839583A683B78386E192E091838083E3
:101B9000C1E7D4E081E088AB19AA1092B504109295
:101BA000B6041092B7041092B8041092B9041092BF
:101BB0006404109263041092620410926104109203
:101BC000600480935F0410925E0484E10E94C80563
:101BD00085E10E94C805E9EBF0E080818E7F80837B
:101BE00080818D7F808388E48093B80085E4809332
:101BF000BC0087E790E09BAB8AABDF91CF91089563
:101C000040D008F481E00895E89409C097FB3EF4C1
:101C100090958095709561957F4F8F4F9F4F992339
:101C2000A9F0F92F96E9BB279395F69587957795B7
:101C30006795B795F111F8CFFAF4BB0F11F460FF77
:101C40001BC06F5F7F4F8F4F9F4F16C0882311F0CF
:101C500096E911C0772321F09EE8872F762F05C0E3
:101C6000662371F096E8862F70E060E02AF09A957E
:101C7000660F771F881FDAF7880F9695879597F973
:101C80000895990F0008550FAA0BE0E8FEEF16160D
:101C90001706E807F907C0F012161306E407F50760
:101CA00098F0621B730B840B950B39F40A2661F0D4
:101CB000232B242B252B21F408950A2609F4A14077
:101CC000A6958FEF811D811D08950BD078C069D036
:101CD00028F06ED018F0952309F05AC05FC0112487
:101CE000A2C07ED0A0F3959FD1F3950F50E0551F71
:101CF000629FF001729FBB27F00DB11D639FAA2761
:101D0000F00DB11DAA1F649F6627B00DA11D661FAF
:101D1000829F2227B00DA11D621F739FB00DA11DD0
:101D2000621F839FA00D611D221F749F3327A00D8A
:101D3000611D231F849F600D211D822F762F6A2F26
:101D400011249F5750408AF0E1F088234AF0EE0FAB
:101D5000FF1FBB1F661F771F881F91505040A9F7B8
:101D60009E3F510570F014C05EC05F3FECF3983E9B
:101D7000DCF3869577956795B795F795E7959F5F1F
:101D8000C1F7FE2B880F911D9695879597F90895B9
:101D900097F99F6780E870E060E008959FEF80EC1E
:101DA000089500240A9416161706180609060895C1
:101DB00000240A9412161306140605060895092E27
:101DC0000394000C11F4882352F0BB0F40F4BF2B96
:101DD00011F460FF04C06F5F7F4F8F4F9F4F0895D6
:101DE00057FD9058440F551F59F05F3F71F04795CC
:101DF000880F97FB991F61F09F3F79F087950895B1
:101E0000121613061406551FF2CF4695F1DF08C0CF
:101E1000161617061806991FF1CF869571056105EC
:101E200008940895E894BB2766277727CB0197F994
:101E30000895DB018F939F932DD0BF91AF91A29F07
:101E4000800D911DA39F900DB29F900D11240895B8
:101E5000A1E21A2EAA1BBB1BFD010DC0AA1FBB1FAE
:101E6000EE1FFF1FA217B307E407F50720F0A21B20
:101E7000B30BE40BF50B661F771F881F991F1A948D
:101E800069F760957095809590959B01AC01BD01B7
:101E9000CF01089509D0A59F900DB49F900DA49FE8
:101EA000800D911D11240895A29FB001B39FC00120
:101EB000A39F700D811D1124911DB29F700D811D76
:101EC0001124911D08955058BB27AA270ED077CF13
:101ED00068DF30F06DDF20F031F49F3F11F41EF425
:101EE0005DCF0EF4E095E7FB53CFE92F79DF80F368
:101EF000BA17620773078407950718F071F49EF507
:101F000091CF0EF4E0950B2EBA2FA02D0B01B90145
:101F100090010C01CA01A0011124FF27591B99F05F
:101F2000593F50F4503E68F11A16F040A22F232F6B
:101F3000342F4427585FF3CF469537952795A795BB
:101F4000F0405395C9F77EF41F16BA0B620B730B62
:101F5000840BBAF09150A1F0FF0FBB1F661F771FD3
:101F6000881FC2F70EC0BA0F621F731F841F48F488
:101F7000879577956795B795F7959E3F08F0B3CF0E
:101F80009395880F08F09927EE0F979587950895F8
:101F90000CD015CF0DDF40F004DF30F021F45F3FAF
:101FA00019F0F6CE51113FCFF9CE1ADF98F39923ED
:101FB000C9F35523B1F3951B550BBB27AA2762170D
:101FC0007307840738F09F5F5F4F220F331F441F52
:101FD000AA1FA9F333D00E2E3AF0E0E830D091508A
:101FE0005040E695001CCAF729D0FE2F27D0660F77
:101FF000771F881FBB1F261737074807AB07B0E8B6
:1020000009F0BB0B802DBF01FF2793585F4F2AF0CB
:102010009E3F510568F0BCCE06CF5F3FECF3983E83
:10202000DCF3869577956795B795F7959F5FC9F728
:10203000880F911D9695879597F90895E1E0660FB1
:10204000771F881FBB1F621773078407BA0720F02A
:10205000621B730B840BBA0BEE1F88F7E095089593
:10206000BEE304D008F490E80895BFE322273327A5
:10207000A901BEDE58F19F5740F1B91738F1BFE30F
:10208000B91B9927B8503AF4660F771F881F991F1C
:10209000B395D2F316C0B8504AF0232F342F452FF2
:1020A000562F672F782F8827B850BAF7B85F49F0B6
:1020B0008695779567955795479537952795BA955E
:1020C000B9F70EF471D088940895889460E070E0B8
:1020D000CB0108958DDE88F09F5790F0B92F992796
:1020E000B751A0F0D1F0660F771F881F991F1AF023
:1020F000BA95C9F712C0B13081F094DEB1E008950D
:1021000091CE672F782F8827B85F39F0B93FCCF38D
:10211000869577956795B395D9F73EF49095809518
:10212000709561957F4F8F4F9F4F0895E894F92FD9
:1021300096EBFF2381F0121613061406440B9395B9
:10214000F69587957795679557954040FF23B9F7A2
:102150001BC099270895882351F49850D2F7872BF4
:10216000762F652F542F432F322F20E0B1F3121614
:1021700013061406440B88233AF09A95440F551F12
:10218000661F771F881FCAF755234AF4440F551F4F
:1021900011F460FF04C06F5F7F4F8F4F9F4F880F18
:1021A0009695879597F90895909580957095609587
:1021B00050954095309521953F4F4F4F5F4F6F4F52
:1021C0007F4F8F4F9F4F08955CDD08F48FEF089588
:1021D000FA01EE0FFF1F30962105310599F16115C7
:1021E000710561F48038BFE39B0749F1689490382A
:1021F000810561F08038BFEF9B0741F0992342F5DC
:10220000FF3FE1053105210511F1E8940894E795B8
:10221000D901AA2329F4AB2FBE2FF85FD0F310C049
:10222000FF5F70F4A695E0F7F73950F019F0FF3A28
:1022300038F49F779F930CD00F9007FC9058089527
:102240003EF0ACCD60E070E080E89FE308954FE79A
:102250009F775F934F933F932F93A2D02F913F91FE
:102260004F915F9132DD09C00CDD880B990B089509
:1022700019F40EF08DCDD6CD91CDBADDC8F39638D8
:10228000C0F707F80F92E8942BE33AEA48EB5FE7D0
:102290002ADD0F920F920F924DB75EB70F92C0D00A
:1022A000E8E0F1E016D04F915F91EF91FF91E59555
:1022B000EE1FFF1F49F0FE57E0684427EE0F441F52
:1022C000FA95E1F74195550B32D00F9007FE26C0E5
:1022D0000895DF93CF931F930F93FF92EF92DF92B6
:1022E0007B018C01689405C0DA2EEF01FADCFE0157
:1022F000E894A5912591359145915591AEF3EF0163
:10230000F4DDFE019701A801DA9479F7DF90EF90F0
:10231000FF900F911F91CF91DF9108959B01AC0128
:1023200060E070E080E89FE333CE32CDACC060DD8A
:10233000E8F39923D9F3940F511DBBF3915050400A
:1023400094F059F0882332F0660F771F881F915060
:102350005040C1F79E3F510544F7880F911D969557
:10236000879597F908955F3FACF0983E9CF0BB27A6
:10237000869577956795B79508F4B1609395C1F701
:10238000BB0F58F711F460FFE8CF6F5F7F4F8F4F9F
:102390009F4FE3CF48CD0EF076C000CD6894F8CCC7
:1023A00027DDC8F39923D1F3C6F3DF93CF931F93AF
:1023B0000F93FF92C92FDD2788232AF02197660FFC
:1023C000771F881FDAF720E030E040E85FEB9FE3FB
:1023D000883920F0803E30F021968F7775DDE0E37C
:1023E000F1E003C071DDEDE5F1E073DF8B01BE01CB
:1023F000EC01FB2E6F5771097595771F880B990BB0
:1024000005DC28E132E741E35FE36BDCAF2D9801A7
:10241000AE01FF900F911F91CF91DF9166DDCFCC80
:10242000FA01DC01AA0FBB1F9B01AC01BF5728F4C6
:1024300022273327442750781FC0B75188F4AB2F89
:102440000024469537952795011CA395D2F30020CB
:1024500069F0220F331F441FB395DAF30DD033CD4B
:1024600061307105A0E88A07B94630F49B01AC01E0
:102470006627772788279078309621F0208331834C
:102480004283538308959F3F31F0915020F4879504
:1024900077956795B795880F911D9695879597F9CC
:1024A0000895EE0FFF1F881F8BBF0790F691E02D58
:1024B0001994DF93CF931F930F939A9DF02D219F33
:1024C000F00D8B9DF00D8A9DE02DF10D039FF00D19
:1024D000029FE00DF11D4E9DE00DF11D5E9DF00D82
:1024E0004F9DF00D7F936F93BF92AF925F934F9389
:1024F000D501DADC8B01AC01D701D6DCEB01E80FAA
:10250000F91FD6011FD02F913F91D601CDDCC60F08
:10251000D71FE81FF91FAF91BF9114D02F913F91A2
:10252000C3DCC60FD71FE81FF91FD601BDDCE60FBD
:10253000F71F9801BE01CF0111240F911F91CF9178
:10254000DF910895B1DC460F571FC81FD91F08F44B
:102550003196089597FB57FF0BC09F938F9308D038
:102560006E1B7F0BAF91BF918A0B9B0B0895E89474
:10257000DF93CF93FC01DB0197DC7F936F93E9013D
:102580009A01AC01BF93AF933F932F93DF018CDC93
:1025900026F46C1B7D0B820B930B9E01EB01FC015F
:1025A000D1DFAF91BF912F913F91CCDFBE01CF0121
:1025B000F9012F913F91CF91DF9108950F9308304A
:1025C00090F0982F872F762F652F542F432F322F7F
:1025D00022270850F4CF220F331F441F551F661FB8
:1025E000771F881F991F0A95B2F70F91089597FBDF
:1025F00010F8169400080F93083098F00850232F15
:10260000342F452F562F672F782F892F902DF4CFF9
:10261000059497958795779567955795479537953D
:1026200027950A95AAF70F9108952A0D3B1D4C1D79
:102630005D1D6E1D7F1D801F911F08952A193B0986
:102640004C095D096E097F09800B910B08950024E8
:10265000A7FD00942A173005400550056005700558
:1026600080059005089581E090E0F89400C0F8940A
:02267000FFCF9A
:102672000000000000026E0199014602CA01A80191
:10268200BC0100000000510322038003F6021A037A
:102692000603F702564D4450565F317C315F564D6A
:1026A2004450560D0A0054656D70657261747572FE
:1026B200652043203D200054656D7065726174751C
:1026C20072652046203D20005072657373757265F5
:1026D2002061627320286D626172293D2000507270
:1026E2006573737572652072656C617469766520B5
:1026F200286D626172293D2000416C7469747564B1
:1027020065206368616E676520286D29203D200081
:0C2712006E616E00696E66006F766600F6
:020000023000CC
:10E000000D9489F10D94B2F10D94B2F10D94B2F129
:10E010000D94B2F10D94B2F10D94B2F10D94B2F1F0
:10E020000D94B2F10D94B2F10D94B2F10D94B2F1E0
:10E030000D94B2F10D94B2F10D94B2F10D94B2F1D0
:10E040000D94B2F10D94B2F10D94B2F10D94B2F1C0
:10E050000D94B2F10D94B2F10D94B2F10D94B2F1B0
:10E060000D94B2F10D94B2F10D94B2F10D94B2F1A0
:10E070000D94B2F10D94B2F10D94B2F10D94B2F190
:10E080000D94B2F10D94B2F10D94B2F10D94B2F180
:10E090000D94B2F10D94B2F10D94B2F10D94B2F170
:10E0A0000D94B2F10D94B2F10D94B2F10D94B2F160
:10E0B0000D94B2F10D94B2F10D94B2F10D94B2F150
:10E0C0000D94B2F10D94B2F10D94B2F10D94B2F140
:10E0D0000D94B2F10D94B2F10D94B2F10D94B2F130
:10E0E0000D94B2F141546D656761323536300041AF
:10E0F000726475696E6F206578706C6F72657220DE
:10E1000073746B3530305632206279204D4C530099
:10E11000426F6F746C6F616465723E004875683F52
:10E1200000436F6D70696C6564206F6E203D200048
:10E130004350552054797065202020203D20005FF9
:10E140005F4156525F415243485F5F3D2000415658
:10E1500052204C696243205665723D20004743437C
:10E160002056657273696F6E203D20004350552024
:10E1700049442020202020203D20004C6F7720663D
:10E18000757365202020203D20004869676820665F
:10E190007573652020203D200045787420667573D6
:10E1A00065202020203D20004C6F636B2066757336
:10E1B000652020203D20004D617220203720323024
:10E1C000313300312E362E3800342E332E350056A2
:10E1D00023202020414444522020206F7020636F70
:10E1E00064652020202020696E73747275637469E1
:10E1F0006F6E2061646472202020496E74657272B3
:10E20000757074006E6F20766563746F7200726A49
:10E210006D702020006A6D70200057686174207056
:10E220006F72743A00506F7274206E6F7420737541
:10E2300070706F72746564004D7573742062652030
:10E2400061206C6574746572002000577269747483
:10E25000696E672045450052656164696E672045B7
:10E26000450045452065727220636E743D00504F35
:10E27000525400303D5A65726F2061646472003FF1
:10E280003D43505520737461747300403D454550C3
:10E29000524F4D207465737400423D426C696E6B41
:10E2A000204C454400453D44756D70204545505215
:10E2B0004F4D00463D44756D7020464C415348001B
:10E2C000483D48656C70004C3D4C69737420492F83
:10E2D0004F20506F72747300513D51756974005234
:10E2E0003D44756D702052414D00563D73686F7707
:10E2F00020696E7465727275707420566563746FF0
:10E30000727300593D506F727420626C696E6B00BD
:10E310002A0011241FBECFEFD1E2DEBFCDBF01E046
:10E320000CBF12E0A0E0B2E0EEE1FDEF03E00BBFB6
:10E3300002C007900D92A030B107D9F712E0A0E01B
:10E34000B2E001C01D92AE30B107E1F70F9460F367
:10E350000D948DFE01E20EBF0FEF0DBF11241FBE05
:10E360000D9460F30D9400F020E030E040ED57E0B4
:10E3700005C0FA013197F1F72F5F3F4F2817390792
:10E38000C0F308959C01260F311DC901A0E0B0E043
:10E390002F5F3F4FABBFFC018791882361F08093D3
:10E3A000C6008091C00086FFFCCF8091C0008064D1
:10E3B0008093C000EACF08958DE08093C6008091DD
:10E3C000C00086FFFCCF8091C00080648093C000B5
:10E3D0008AE08093C6008091C00086FFFCCF8091C8
:10E3E000C00080648093C00008950F94C2F10F9420
:10E3F000DCF10895FC019081992359F09093C600B7
:10E400008091C00086FFFCCF8091C0008064809323
:10E41000C0003196992379F70895282F982F929567
:10E420009F70892F805D8A3308F0895F8093C600D2
:10E430008091C00086FFFCCF8091C00080648093F3
:10E44000C000822F8F70982F905D9A3308F0995FEB
:10E450009093C6008091C00086FFFCCF8091C000E1
:10E4600080648093C00008959C01FB01853691056E
:10E470001CF46330710594F0C90164E670E00F94F8
:10E480002EFE605D7F4F6093C6008091C00086FFC6
:10E49000FCCF8091C00080648093C0002B30310598
:10E4A00014F43297B4F0C90164E670E00F942EFEC4
:10E4B0006AE070E00F942EFE605D7F4F6093C600AF
:10E4C0008091C00086FFFCCF8091C0008064809363
:10E4D000C000C9016AE070E00F942EFEC0968093E0
:10E4E000C6008091C00086FFFCCF8091C000806490
:10E4F0008093C00008951F93182F8EE692EE60E07F
:10E500000F94C2F11093C6008091C00086FFFCCF2B
:10E510008091C00080648093C0000F94DCF11F9153
:10E5200008952F923F924F925F926F927F928F92B7
:10E530009F92AF92BF92CF92DF92EF92FF920F9392
:10E540001F93DF93CF93CDB7DEB762970FB6F894E2
:10E55000DEBF0FBECDBF382E622ECA01DB015C01CB
:10E560006D01772420E2222E2E010894411C511CBB
:10E570008BC081E0A81680E0B80681E0C80680E084
:10E58000D80628F0C601AA27BB270F940DF2BB2797
:10E59000AD2D9C2D8B2D0F940DF28A2D0F940DF225
:10E5A0002092C6008091C00086FFFCCF8091C00001
:10E5B00080648093C0009DE29093C6008091C0006B
:10E5C00086FFFCCF8091C00080648093C0002092C1
:10E5D000C6008091C00086FFFCCF8091C00080649F
:10E5E0008093C00019828601750188249924A1E0D6
:10E5F0003A1651F03A1620F0B2E03B1661F409C029
:10E600000BBFF701779007C0C7010F9477FE782EF4
:10E6100002C0F7017080872D0F940DF22092C60082
:10E620008091C00086FFFCCF8091C0008064809301
:10E63000C000872D8052F401EF70F0708F3520F408
:10E64000E40DF51D708204C0E40DF51D8EE280839B
:10E650000894E11CF11C011D111D0894811C911CE2
:10E6600090E18916910409F0C2CF80E190E0A0E02A
:10E67000B0E0A80EB91ECA1EDB1E198AC2010F9493
:10E68000FAF10F94DCF16A94662009F072CF629679
:10E690000FB6F894DEBF0FBECDBFCF91DF911F91B3
:10E6A0000F91FF90EF90DF90CF90BF90AF909F9031
:10E6B0008F907F906F905F904F903F902F90089534
:10E6C0002F923F924F925F926F927F928F929F9282
:10E6D000AF92BF92CF92DF92EF92FF920F931F9370
:10E6E000DF93CF93CDB7DEB7CD53D1400FB6F894BB
:10E6F000DEBF0FBECDBF01E20EBF0FEF0DBF94B75F
:10E70000F894A89514BE80916000886180936000A1
:10E7100010926000789493FF05C0E0910002F091A0
:10E7200001021995279A2F9A8091C00082608093E8
:10E73000C00080E18093C40088E18093C1000000A4
:10E74000EE24FF24870144E0A42EB12CCC24DD2448
:10E7500024C0C5010197F1F70894E11CF11C011DCB
:10E76000111D21E2E2162EE4F20620E0020720E06D
:10E77000120718F031E0C32ED12CC801B70127ECE5
:10E780003BE140E050E00F9441FE611571058105C9
:10E79000910519F485B1805885B98091C00087FD35
:10E7A00003C0C114D104A9F2A6014F5F5F4FC25E3E
:10E7B000DE4F59834883CE51D140C25EDE4F8881FF
:10E7C0009981CE51D140019711F00D9410FEC05D9A
:10E7D000DE4F19821882C053D14060E0C15DDE4F28
:10E7E0001882CF52D14088249924C35DDE4F19820C
:10E7F0001882CD52D140C05EDE4F188219821A8233
:10E800001B82C052D140CE5CDE4F188219821A8220
:10E810001B82C253D140EE24FF2487010BBFF701B6
:10E8200007911691C45CDE4F19830883CC53D14005
:10E830000D940BFEC25EDE4F28813981CE51D1404E
:10E840002130310509F52091C600C25EDE4F1982E4
:10E850001882CE51D14022C02F5F3F4F4F4F5F4FA4
:10E86000213082E138078AE7480780E0580780F0C6
:10E87000C45CDE4FE881F981CC53D140EF5FFF4F9C
:10E8800019F0EE27FF27099420E030E040E050E047
:10E890008091C00087FFE0CF2091C600C35DDE4FAE
:10E8A00048815981CD52D1404F5F5F4FC35DDE4FEC
:10E8B00059834883CD52D140213209F063C64A3092
:10E8C000510508F05FC60894811C911C53E0851621
:10E8D000910409F059C600E010E018C081E280936D
:10E8E000C6008091C00086FFFCCF8091C00080648C
:10E8F0008093C0002F5F3F4F2931310579F70F9486
:10E90000DCF10F5F1F4F0530110519F020E030E0FA
:10E91000E5CF10920A0210920B0210920C02109294
:10E920000D02109206021092070210920802109235
:10E930000902109202021092030210920402109235
:10E9400005028FEE90EE60E00F94F5F180E191EE1C
:10E9500060E00F94C2F18091C00087FFFCCF9091DE
:10E96000C600903608F09F759032B8F09093C600BC
:10E970008091C00086FFFCCF8091C00080648093AE
:10E98000C000A0E2A093C6008091C00086FFFCCF2B
:10E990008091C00080648093C000983409F4D7C18E
:10E9A0009934B8F4923409F459C1933458F490333B
:10E9B00019F1903308F4E3C59F33A1F1903409F0C5
:10E9C000DEC5BDC0953409F470C1963409F0D7C5D1
:10E9D00098C1923509F42BC2933538F49C3409F46C
:10E9E000F5C1913509F0CBC518C2963509F445C279
:10E9F000993509F0C4C567C483E792EE62E00F94CD
:10EA0000F5F110920602109207021092080210927D
:10EA1000090210920A0210920B0210920C0210923C
:10EA20000D0213C18FE792EE62E00F94F5F18FEEC5
:10EA300090EE60E00F94F5F181E291EE60E00F94CA
:10EA4000C2F187EB91EE60E00F94F5F180E391EE77
:10EA500060E00F94C2F184EE90EE60E00F94F5F167
:10EA60008FE391EE60E00F94C2F186E090E061E008
:10EA700070E00F9434F20F94DCF18DE591EE60E0DC
:10EA80000F94C2F189EC91EE60E00F94F5F18EE401
:10EA900091EE60E00F94C2F183EC91EE60E00F9490
:10EAA000F5F18CE691EE60E00F94C2F18EE10F94E7
:10EAB0000DF288E90F940DF281E00F940DF20F949E
:10EAC000DCF18BE791EE60E00F94C2F119E0E0E039
:10EAD000F0E010935700E4918E2F0F940DF20F94F5
:10EAE000DCF18AE891EE60E00F94C2F1E3E0F0E03F
:10EAF00010935700E4918E2F0F940DF20F94DCF1D8
:10EB000089E991EE60E00F94C2F1E2E0F0E0109349
:10EB10005700E4918E2F0F940DF20F94DCF188EAE8
:10EB200091EE60E00F94C2F1E1E0F0E01093570045
:10EB30001491812F0F940DF20F94DCF107CF8BE825
:10EB400092EE62E00F94F5F18BE492EE60E00F94A8
:10EB5000F5F10F94DCF100E010E019C0C8016F2D51
:10EB60000F947FFEFF2031F489E492EE60E00F9471
:10EB7000C2F10BC0F092C6008091C00086FFFCCFAE
:10EB80008091C00080648093C0000F5F1F4FC80158
:10EB900081519F41A0E0B0E0ABBFFC01F790BAE229
:10EBA000FB1621F0E2E000301E07C1F60F94DCF105
:10EBB0000F94DCF187E592EE60E00F94F5F10F948D
:10EBC000DCF1CC24DD2400E010E01EC0C8010F946D
:10EBD00077FEF82E882331F489E492EE60E00F94FA
:10EBE000C2F10BC08093C6008091C00086FFFCCFAD
:10EBF0008091C00080648093C000FE1419F00894D6
:10EC0000C11CD11C0F5F1F4FC80181519F41A0E063
:10EC1000B0E0ABBFFC01E790FAE2EF1621F022E092
:10EC20000030120799F60F94DCF10F94DCF182E6C4
:10EC300092EE60E00F94C2F1C60161E070E00F94C3
:10EC400034F20F94DCF10F94DCF110920202109276
:10EC50000302109204021092050278CE89E992EE26
:10EC600062E00F94F5F1279A2F9A16C02F9880E052
:10EC700090E0E0EDF7E03197F1F7019684369105E9
:10EC8000C1F72F9A80E090E0E0EDF7E03197F1F7DF
:10EC9000019684369105C1F78091C00087FFE6CFC9
:10ECA0008091C00087FFFCCF64C485EA92EE62E0E9
:10ECB0000F94F5F140910202509103026091040219
:10ECC0007091050281E020E10F9491F2809102029F
:10ECD00090910302A0910402B091050280509F4FD1
:10ECE000AF4FBF4F8093020290930302A0930402A0
:10ECF000B093050280509041A040B04008F426CE69
:10ED0000A4CF83EB92EE62E00F94F5F140910602FE
:10ED100050910702609108027091090280E020E1A1
:10ED20000F9491F28091060290910702A09108023F
:10ED3000B091090280509F4FAF4FBF4F80930602A2
:10ED400090930702A0930802B0930902FFCD80ECD4
:10ED500092EE62E00F94F5F183E792EE60E00F949B
:10ED6000F5F18FE792EE60E00F94F5F18BE892EE0B
:10ED700060E00F94F5F189E992EE60E00F94F5F10F
:10ED800085EA92EE60E00F94F5F183EB92EE60E09D
:10ED90000F94F5F180EC92EE60E00F94F5F187ECC2
:10EDA00092EE60E00F94F5F188ED92EE60E00F9442
:10EDB000F5F18FED92EE60E00F94F5F18AEE92EEB0
:10EDC00060E00F94F5F183E093EEBDCD87EC92EE19
:10EDD00062E00F94F5F181E40F947BF282E40F94EA
:10EDE0007BF283E40F947BF284E40F947BF285E45E
:10EDF0000F947BF286E40F947BF287E40F947BF20E
:10EE000088E40F947BF28AE40F947BF28BE40F94F6
:10EE10007BF28CE40F947BF299CD88ED92EE62E068
:10EE20000F94F5F1772473948824992409C48FED05
:10EE300092EE62E00F94F5F140910A0250910B02BC
:10EE400060910C0270910D0282E020E10F9491F22A
:10EE500080910A0290910B02A0910C02B0910D02D8
:10EE600080509F4FAF4FBF4F80930A0290930B0289
:10EE7000A0930C02B0930D0269CD8AEE92EE62E08F
:10EE80000F94F5F184EE90EE60E00F94F5F18FECC5
:10EE900091EE60E00F94F5F1662477244301CC5D98
:10EEA000DE4F19821882C452D140D401C301B695F5
:10EEB000A79597958795CA5DDE4F88839983AA8326
:10EEC000BB83C652D140CC5DDE4FA881B981C4520C
:10EED000D1401196CC5DDE4FB983A883C452D14096
:10EEE000CD0162E070E00F9434F2B0E2B093C6005E
:10EEF0008091C00086FFFCCF8091C0008064809329
:10EF0000C000EDE2E093C6008091C00086FFFCCF18
:10EF10008091C00080648093C000F0E2F093C6004E
:10EF20008091C00086FFFCCF8091C00080648093F8
:10EF3000C000CA5DDE4FE880F9800A811B81C6529D
:10EF4000D140BB27A12F902F8F2D0F940DF2CA5DBA
:10EF5000DE4F8881C652D1400F940DF2B0E2FB2EF5
:10EF6000F092C6008091C00086FFFCCF8091C00067
:10EF700080648093C0000DE30093C6008091C000C0
:10EF800086FFFCCF8091C00080648093C00010E2B7
:10EF90001093C6008091C00086FFFCCF8091C00016
:10EFA00080648093C0008BBEF3012791C65DDE4F65
:10EFB0002883CA52D140A22EBB24CC24DD2408943D
:10EFC000611C711C811C911C8BBEF3018791282E42
:10EFD0003324442455240894611C711C811C911C09
:10EFE0008BBEF3013791C55DDE4F3883CB52D140E4
:10EFF0000894611C711C811C911C8BBEF30147910C
:10F00000C45DDE4F4883CC52D140ADEFEA2EAFEF66
:10F01000FA2EAFEF0A2FAFEF1A2F6E0C7F1C801E57
:10F02000911E142D032DF22CEE24EA0CFB1C0C1D5A
:10F030001D1D0F940DF220E22093C6008091C000A8
:10F0400086FFFCCF8091C00080648093C000C65DC5
:10F05000DE4F8881CA52D1400F940DF230E23093D6
:10F06000C6008091C00086FFFCCF8091C000806404
:10F070008093C000C45DDE4F8881CC52D1400F9494
:10F080000DF240E24093C6008091C00086FFFCCFA5
:10F090008091C00080648093C000C55DDE4F888190
:10F0A000CB52D1400F940DF250E25093C6008091A4
:10F0B000C00086FFFCCF8091C00080648093C000B8
:10F0C0008FEFE8168FEFF80680E0080780E018075A
:10F0D00031F484E092EE60E00F94C2F1DFC0D80119
:10F0E000C7018070907CA070B0708050904CA040A0
:10F0F000B040D1F52FEF3FE340E050E0E222F322B1
:10F1000004231523CA5DDE4FA880B980CA80DB8046
:10F11000C652D140AE0CBF1CC01ED11EAA0CBB1CD7
:10F12000CC1CDD1C8EE092EE60E00F94C2F1BB2798
:10F13000A12F902F8F2D0F940DF28E2D0F940DF285
:10F1400030E23093C6008091C00086FFFCCF8091F2
:10F15000C00080648093C0004EE34093C60080915D
:10F16000C00086FFFCCF87C08EE09EEFA0E0B0E03D
:10F17000E822F9220A231B239CE0E91694E9F90608
:10F1800090E0090790E0190709F088C0C45DDE4FE0
:10F19000A881CC52D140EA2EFF2400E010E0102FCD
:10F1A0000F2DFE2CEE24C55DDE4FB881CB52D14031
:10F1B000EB0EF11C011D111DD601C501817090706F
:10F1C000A070B070DC0199278827E80EF91E0A1F8D
:10F1D0001B1F20EF30E040E050E0A222B322C42207
:10F1E000D52241E1AA0CBB1CCC1CDD1C4A95D1F7F1
:10F1F000EA0CFB1C0C1D1D1D81E090E0A0E0B0E0BE
:10F20000282239224A225B2235E1220C331C441C7D
:10F21000551C3A95D1F7E20CF31C041D151D57013E
:10F220006801AA0CBB1CCC1CDD1C85E192EE60E0E1
:10F230000F94C2F1C801AA27BB270F940DF2BB2778
:10F24000A12F902F8F2D0F940DF28E2D0F940DF274
:10F2500090E29093C6008091C00086FFFCCF809121
:10F26000C00080648093C000AEE3A093C60080918C
:10F27000C00086FFFCCF8091C00080648093C000F6
:10F28000C601AA27BB270F940DF2BB27AD2D9C2DDD
:10F290008B2D0F940DF28A2D0F940DF20F94DCF14B
:10F2A000CC5DDE4FE881F981C452D140F99709F471
:10F2B0004DCBF4E0EF2EF12C012D112D6E0C7F1CA7
:10F2C000801E911EF2CD83E093EE62E00F94F5F183
:10F2D0008AE192EE60E00F94C2F18091C00087FF56
:10F2E000FCCF1091C6001F751093C6008091C0001E
:10F2F00086FFFCCF8091C00080648093C0000F9493
:10F30000DCF1812F81548A3108F036C1163409F4BA
:10F3100095C0173490F4133409F44EC0143430F40B
:10F320001134F1F0123409F01DC130C0143409F465
:10F3300059C0153409F016C16BC01A3409F4C4C0A1
:10F340001B3438F4173409F48FC0183409F00AC19B
:10F35000A1C01B3409F4D2C01C3409F003C1E8C0B9
:10F360008FEF81B90DC082B1809582B980E090E0C5
:10F37000E0EDF7E03197F1F70196883C9105C1F790
:10F380008091C00087FFEFCF12B8EFC08FEF84B934
:10F390000DC085B1809585B980E090E0E0EDF7E0A3
:10F3A0003197F1F70196883C9105C1F78091C00033
:10F3B00087FFEFCF15B8D9C08FEF87B90DC088B1DF
:10F3C000809588B980E090E0E0EDF7E03197F1F7C3
:10F3D0000196883C9105C1F78091C00087FFEFCF6F
:10F3E00018B8C3C08FEF8AB90DC08BB180958BB9A7
:10F3F00080E090E0E0EDF7E03197F1F70196883C8E
:10F400009105C1F78091C00087FFEFCF1BB8ADC059
:10F410008FEF8DB90DC08EB180958EB980E090E0F0
:10F42000E0EDF7E03197F1F70196883C9105C1F7DF
:10F430008091C00087FFEFCF1EB897C08FEF80BBD1
:10F440000DC081B3809581BB80E090E0E0EDF7E0F6
:10F450003197F1F70196883C9105C1F78091C00082
:10F4600087FFEFCF11BA81C08FEF83BB0DC084B38C
:10F47000809584BB80E090E0E0EDF7E03197F1F714
:10F480000196883C9105C1F78091C00087FFEFCFBE
:10F4900014BA6BC08FEF809301010FC080910201FD
:10F4A00080958093020180E090E0E0EDF7E03197F5
:10F4B000F1F70196883C9105C1F78091C00087FF64
:10F4C000EDCF1092020151C08FEF809304010FC065
:10F4D0008091050180958093050180E090E0E0ED4A
:10F4E000F7E03197F1F70196883C9105C1F78091DB
:10F4F000C00087FFEDCF1092050137C08FEF8093DA
:10F5000007010FC08091080180958093080180E079
:10F5100090E0E0EDF7E03197F1F70196883C910536
:10F52000C1F78091C00087FFEDCF109208011DC088
:10F530008FEF80930A010FC080910B01809580931B
:10F540000B0180E090E0E0EDF7E03197F1F70196F4
:10F55000883C9105C1F78091C00087FFEDCF1092E4
:10F560000B0103C085E292EEEEC98091C00087FFD7
:10F57000FCCF8091C600EAC988E392EEE4C98CE131
:10F5800091EEE1C988249924933011F1943028F444
:10F59000913089F09230B8F408C0953061F195301F
:10F5A000F0F0963009F048C043C02B3109F042C951
:10F5B00091E06BE13FC96227C15DDE4F2883CF52E6
:10F5C000D14092E037C9B22FA0E0622793E032C960
:10F5D000822F90E0A82BB92B622794E02BC92E3004
:10F5E00009F039C3622795E0C05DDE4F19821882A9
:10F5F000C053D1401FC9E1E0F0E0EC0FFD1FC05D3A
:10F60000DE4F08811981C053D140E00FF11F2083E4
:10F610000F5F1F4FC05DDE4F19830883C053D14079
:10F6200062270A171B0709F005C9D80196E002C92D
:10F63000261709F010C303C0973009F0FBC87724E0
:10F640009981933109F412C19431C8F4963009F4C8
:10F65000D8C0973050F4923009F406C1933009F4C1
:10F660006DC0913009F059C253C0913109F477C08F
:10F67000923108F0BBC0903109F04FC2F5C098310B
:10F6800009F487C0993150F4953109F4EFC09531F0
:10F6900008F4C6C1963109F040C2C2C19A3109F4DA
:10F6A0006CC09A3108F491C09B3109F45BC09D3164
:10F6B00009F033C29D81903359F48F81882311F46E
:10F6C0009EE11CC0813011F091E018C098E916C08D
:10F6D000892F807591F0903539F4E0E0F0E089E011
:10F6E0008093570094910AC0983539F4E3E0F0E034
:10F6F00089E080935700949101C090E01A821B82A8
:10F700008D818C831D829E831F8227E030E009C299
:10F710001A8288E08B8381E48C8386E58D8382E581
:10F720008E8389E48F8383E5888780E589878FE5E9
:10F730008A8782E38B872BE030E0F3C18A818139AD
:10F7400041F0823941F0803911F48FE005C080E04A
:10F7500003C082E001C08AE01A828B8344C0772410
:10F76000739482C08D81882311F48EE12CC0813086
:10F7700011F081E028C088E926C01A82E1E0F0E0BB
:10F7800089E08093570084918B831C8224E030E0D1
:10F79000C8C18B81803589F48C81883039F4E2E0EE
:10F7A000F0E089E08093570084910DC0E0E0F0E044
:10F7B00089E080935700849106C0E3E0F0E089E09F
:10F7C0008093570084911A82DFCF8D81836C99E0FA
:10F7D000E1E0F0E0082E90935700E89507B600FCB2
:10F7E000FDCF1A821B8223E030E09BC180EC8A832C
:10F7F000CE5CDE4F188219821A821B82C253D1401E
:10F800008EC18A8190E0A0E0B0E0582F44273327D2
:10F8100022278B8190E0A0E0B0E0DC0199278827C7
:10F82000282B392B4A2B5B2B8D8190E0A0E0B0E098
:10F83000282B392B4A2B5B2B8C8190E0A0E0B0E089
:10F84000BA2FA92F982F8827282B392B4A2B5B2BCF
:10F85000220F331F441F551FC05EDE4F288339839C
:10F860004A835B83C052D1401A8259C13A81C95C34
:10F87000DE4F3883C753D140CA5CDE4F1882C6536F
:10F88000D1408B81C82EDD24CA5CDE4F488159816E
:10F89000C653D140C42AD52A933109F082C0CE5C28
:10F8A000DE4F88819981AA81BB81C253D1408050AB
:10F8B000904CA340B04030F583E0CE5CDE4FE88052
:10F8C000F9800A811B81C253D140F70100935B008C
:10F8D00080935700E89507B600FCFDCFCE5CDE4F65
:10F8E000088119812A813B81C253D14000501F4FAA
:10F8F0002F4F3F4FCE5CDE4F088319832A833B8313
:10F90000C253D140C05EDE4F488159816A817B81FC
:10F91000C052D140DE011B9631E08C9111962C91A2
:10F9200011971296C75CDE4F2883C953D140C85C3B
:10F93000DE4F1882C853D14090E0C85CDE4FE881AA
:10F94000F981C853D1408E2B9F2B0C01FA01609393
:10F950005B0030935700E89511244E5F5F4F6F4F67
:10F960007F4F0EEFE02E0FEFF02ECE0CDF1CC114F8
:10F97000D10499F685E0C05EDE4F088119812A81A5
:10F980003B81C052D140F80120935B008093570027
:10F99000E89507B600FCFDCF81E180935700E8951C
:10F9A00035C0C05EDE4F88819981AA81BB81C0527B
:10F9B000D140B695A795979587957C018601ABE0D8
:10F9C000AA2EB12CAC0EBD1E0BC0D5016D915D01F0
:10F9D000C7010F947FFE0894E11CF11C01501040F8
:10F9E0000115110591F7A60160E070E0440F551F65
:10F9F000661F771FC05EDE4FE880F9800A811B8199
:10FA0000C052D1404E0D5F1D601F711F1A82C05E33
:10FA1000DE4F488359836A837B83C052D1407FC0C5
:10FA2000FA80C55CDE4FF882CB53D140C65CDE4F16
:10FA30001882CA53D1408B81C82EDD24C65CDE4FAC
:10FA400008811981CA53D140C02AD12A1A828981DA
:10FA5000BE016D5F7F4F843121F59601C05EDE4FA0
:10FA6000E880F9800A811B81C052D1400BBFF701A9
:10FA700087919691DB018C9311969C936E5F7F4FDB
:10FA8000D801C7010296A11DB11DC05EDE4F88835B
:10FA90009983AA83BB83C052D14022503040F1F6F3
:10FAA00036C0C05EDE4F288139814A815B81C052F9
:10FAB000D1400894C108D108760100E010E0089414
:10FAC000C11CD11C0894E11CF11C011D111DE20E8A
:10FAD000F31E041F151F21BDBB27A52F942F832FB5
:10FAE00082BD2F5F3F4F4F4F5F4FF89A80B5DB01CC
:10FAF0008D93BD012E153F054007510761F7C05E8C
:10FB0000DE4F288339834A835B83C052D1409601FC
:10FB10002D5F3F4FFB01108204C080EC8A8322E0FE
:10FB200030E08BE18093C6008091C00086FFFCCF5F
:10FB30008091C00080648093C000C15DDE4FF88179
:10FB4000CF52D140F093C6008091C00086FFFCCF19
:10FB50008091C00080648093C000432F3093C60022
:10FB60008091C00086FFFCCF8091C00080648093AC
:10FB7000C000922F2093C6008091C00086FFFCCF6A
:10FB80008091C00080648093C0008EE08093C600A6
:10FB90008091C00086FFFCCF8091C000806480937C
:10FBA000C00065E1C15DDE4FE880CF52D1406E25D7
:10FBB00069276427FE01319610C090819093C6009A
:10FBC0008091C00086FFFCCF31968091C000806498
:10FBD0008093C0006927215030402115310569F715
:10FBE0006093C6008091C00086FFFCCF8091C0006A
:10FBF00080648093C00085B1805885B9772081F4F6
:10FC0000C15DDE4F0881CF52D1400F5FC15DDE4F35
:10FC10000883CF52D14090E0A0E0B0E00D941AF4F8
:10FC200027982F9880E090E020ED37E0F901319798
:10FC3000F1F7019684369105C9F700008091C00064
:10FC40008D7F8093C00081E180935700E895EE2777
:10FC5000FF270994FFCF90E00D941AF497FB092E2B
:10FC600007260AD077FD04D02ED006D000201AF443
:10FC7000709561957F4F0895F6F7909581959F4F08
:10FC80000895A1E21A2EAA1BBB1BFD010DC0AA1FDD
:10FC9000BB1FEE1FFF1FA217B307E407F50720F0F5
:10FCA000A21BB30BE40BF50B661F771F881F991F70
:10FCB0001A9469F760957095809590959B01AC01B9
:10FCC000BD01CF010895AA1BBB1B51E107C0AA1FAC
:10FCD000BB1FA617B70710F0A61BB70B881F991FED
:10FCE0005A95A9F780959095BC01CD010895F99991
:10FCF000FECF92BD81BDF89A992780B50895262F31
:10FD0000F999FECF1FBA92BD81BD20BD0FB6F89400
:0EFD1000FA9AF99A0FBE01960895F894FFCF63
:040000033000E000E9
:00000001FF